S01100006C69666574696D65722E7372656352
S11300000C9434000C9446000C9446000C94460066
S11300100C9446000C94D5010C9446000C944600B4
S11300200C9446000C9464020C9446000C94460014
S11300300C9446000C9446000C9446000C94460024
S11300400C9446000C9446000C9446000C94460014
S11300500C9446000C9446000C9446000C94460004
S11300600C9446000C94460011241FBECFEFD8E038
S1130070DEBFCDBF21E0A0E0B1E001C01D92A13000
S1130080B207E1F70E9475020C94C4020C940000BC
S113009084B18C6284B92A9A81E58CBD08952A982A
S11300A08EBD0DB407FEFDCF2A9A089528980E94AC
S11300B04F00289A0895289A0E944F00289808957E
S11300C080E00E945B008EE30E945B0082E20E945B
S11300D05B008EE30E945B00089580E00E945B0059
S11300E080E00E945B0080E00E945B008EE30E943F
S11300F05B00089580E00E945B008AE30E945B003D
S11301008AE20E945B008EE20E945B00089580E018
S11301100E945B008AE20E945B008AE20E945B000C
S11301208EE30E945B00089580E00E945B008EE0F5
S11301300E945B0088E00E945B008EE30E945B00EB
S1130140089580E00E945B008EE20E945B008AE2D8
S11301500E945B008AE30E945B00089580E00E9495
S11301605B008EE30E945B008AE20E945B008AE3EC
S11301700E945B00089580E00E945B0082E00E9480
S11301805B0082E00E945B008EE30E945B000895A6
S113019080E00E945B008EE30E945B008AE20E9482
S11301A05B008EE30E945B00089580E00E945B0088
S11301B08EE00E945B008AE00E945B008EE30E9456
S11301C05B00089580E00E945B0080E20E945B0077
S11301D0089580E00E945B008EE30E945B0082E24F
S11301E00E945B0080E00E945B0082E40E945B004E
S11301F085E20E945B0082E10E945B0088E00E942D
S11302005B0084E20E945B0082E50E945B0081E265
S11302100E945B0080E00E945B0082E20E945B001F
S11302208EE30E945B00089582E00E945B008EE3EF
S11302300E945B0082E00E945B0080E00E945B0001
S11302408EE30E945B0080E00E945B008EE30E94CC
S11302505B0084E00E945B0088E00E945B0084E015
S11302600E945B008EE30E945B0080E00E945B00C2
S11302708EE30E945B008AE20E945B0080E00E94A1
S11302805B0080E00E945B008EE30E945B0080E0E4
S11302900E945B008CE20E945B008AE20E945B0089
S11302A08AE10E945B0080E00E945B0080E00E9483
S11302B05B008EE30E945B008AE10E945B008EE299
S11302C00E945B0080E00E945B008EE30E945B0062
S11302D080E20E945B008EE30E945B0080E00E944B
S11302E05B008EE30E945B0084E00E945B0088E078
S11302F00E945B008EE30E945B0080E00E945B0032
S11303008EE30E945B0084E00E945B0088E00E9410
S11303105B008EE30E945B0080E00E945B008EE342
S11303200E945B0080E00E945B008EE30E945B0001
S113033084E00E945B0088E00E945B008EE30E94E0
S11303405B0080E00E945B008EE30E945B0082E21F
S11303500E945B008AE30E945B0080E00E945B00D5
S113036080E00E945B008EE30E945B0082E20E94B8
S11303705B008EE30E945B0080E00E945B008EE3E2
S11303800E945B0080E20E945B008EE30E945B009F
S113039080E00E945B0082E00E945B008EE30E948A
S11303A05B0082E00E945B0008951F920F920FB6DB
S11303B00F9211242F933F934F935F936F937F93E7
S11303C08F939F93AF93BF93CF93DF93EF93FF9359
S11303D08FEA0E945600D1E0C0E002C0CF5FDF5F29
S11303E08C2F806B0E94560082E10E94560080E0B0
S11303F00E945600C13019F40E941401EFCF0E94EC
S113040060000E946D000E94E2000E947A000E9437
S113041087000E9494000E94A1000E94AE000E94E6
S1130420BB000E94C8000E94D50080E00E945B00CF
S113043080E00E945B0080E00E945B0080E00E94FC
S11304405B0080E00E945B0080E00E945B0080E033
S11304500E945B0080E00E945B000E94E900D630AD
S113046008F4BCCF8AE0EFE4F3EC3197F1F700C075
S113047000008150C1F7FF91EF91DF91CF91BF91BF
S1130480AF919F918F917F916F915F914F913F9128
S11304902F910F900FBE0F901F901895109270001F
S11304A080E28093B6001092B200E1EBF0E080812C
S11304B085608083E6EBF0E080818171E9F781E07B
S11304C087BB8093700008951F920F920FB60F920E
S11304D011248F93809100018F5F809300018F918D
S11304E00F900FBE0F901F9018958FE284B91AB821
S11304F00E944E02789483B7817F866083BFE8E6CA
S1130500F0E0808184608083EDE6F0E080818460A7
S113051080830E944800299A81EE94E00197F1F7C4
S113052000C0000085B18C7F85B983EC99E0019708
S1130530F1F700C00000299A8DE80E94560084E17A
S11305400E9456008FEA0E94560080EB0E945600DB
S1130550D0E010E08D2F806B0E945600C12F8C2FAD
S11305608F700E945B00CF5FC038C9F7DF5FD63061
S113057089F78EEA0E94560083B7816083BF88950D
S10F058083B78E7F83BFF5CFF894FFCFC4
S9030000FC
