S01100006C69666574696D65722E7372656352
S11300000C9434000C9451000C9451000C94510045
S11300100C9451000C94290F0C9451000C94510031
S11300200C9451000C944B0F0C9451000C945100FF
S11300300C9451000C9451000C9451000C945100F8
S11300400C9451000C9451000C9451000C945100E8
S11300500C9451000C9451000C9451000C945100D8
S11300600C9451000C94510011241FBECFEFD8E022
S1130070DEBFCDBF11E0A0E0B1E0ECE5F2E202C0EA
S113008005900D92AA30B107D9F721E0AAE0B1E0BA
S113009001C01D92A732B207E1F70E949D100C9493
S11300A02C110C94000084B18C6284B92A9A81E5E5
S11300B08CBD08952A988EBD0DB407FEFDCF2A9AF3
S11300C0089528980E945A00289A0895289A0E9410
S11300D05A002898089580E00E9466008EE30E94EA
S11300E0660082E20E9466008EE30E946600089524
S11300F080E00E94660080E00E94660080E00E942A
S113010066008EE30E946600089580E00E94660007
S11301108AE30E9466008AE20E9466008EE20E94E0
S11301206600089580E00E9466008AE20E946600EC
S11301308AE20E9466008EE30E946600089580E0D1
S11301400E9466008EE00E94660088E00E946600BD
S11301508EE30E946600089580E00E9466008EE2AD
S11301600E9466008AE20E9466008AE30E9466009A
S1130170089580E00E9466008EE30E9466008AE291
S11301800E9466008AE30E946600089580E00E944F
S1130190660082E00E94660082E00E9466008EE3B0
S11301A00E946600089580E00E9466008EE30E942B
S11301B066008AE20E9466008EE30E94660008954B
S11301C080E00E9466008EE00E9466008AE00E9441
S11301D066008EE30E946600089580E00E94660037
S11301E080E20E946600089580E00E9466008EE32B
S11301F00E94660082E20E94660080E00E9466001F
S113020082E40E94660085E20E94660082E10E9408
S1130210660088E00E94660084E20E94660082E52F
S11302200E94660081E20E94660080E00E946600EF
S113023082E20E9466008EE30E946600089580E0D8
S11302400E94660080E00E94660080E00E946600D2
S11302508EE30E94660084E00E94660088E00E94AB
S113026066008EE30E94660080E00E9466008EE3D2
S11302700E9466008AE20E94660080E00E94660096
S11302808EE30E94660080E10E94660088E00E947E
S1130290660080E10E9466008EE30E94660080E0B2
S11302A00E94660080E00E94660080E00E94660072
S11302B08EE30E94660082E20E9466008EE30E9442
S11302C0660080E00E9466008EE30E9466008AE178
S11302D00E9466008EE20E94660080E00E94660032
S11302E08EE30E94660082E20E9466008CE10E9416
S11302F0660080E00E9466008EE30E9466008AE247
S11303000E94660080E00E9466008EE30E94660000
S11303108AE10E9466008EE20E94660080E00E94EC
S113032066008CE20E9466008AE20E9466008AE10E
S11303300E94660080E00E94660080E00E946600E1
S113034080E00E9466008EE30E9466008AE00E94BC
S113035066008AE00E94660080E00E9466008EE3E8
S11303600E9466008AE10E9466008EE20E94660096
S113037080E00E9466008EE30E94660082E20E9492
S113038066008EE30E94660080E00E9466008EE3B1
S11303900E94660084E00E94660088E00E94660075
S11303A084E00E9466008EE30E94660080E00E9462
S11303B0660080E00E94660080E00E946600089566
S11303C080E00E94660080E00E94660080E00E9457
S11303D0660080E00E94660080E00E94660080E083
S11303E00E9466008EE30E94660084E00E9466001C
S11303F088E00E94660084E00E9466008EE30E940A
S1130400660080E00E9466008EE30E9466008AE037
S11304100E9466008EE30E94660080E00E946600EF
S11304208EE30E94660082E20E94660080E00E94E1
S113043066008EE30E94660088E00E9466008EE3F8
S11304400E94660080E00E9466008EE30E946600BF
S113045080E00E9466008EE30E94660084E00E94B1
S1130460660088E00E9466008EE30E94660080E0D9
S11304700E9466008EE30E9466008AE20E94660083
S113048080E00E94660080E00E94660080E00E9496
S1130490660080E00E94660080E00E9466008EE3B1
S11304A00E9466008AE20E94660080E00E94660064
S11304B08EE30E94660084E00E94660088E00E9449
S11304C0660084E00E9466008EE30E94660080E07D
S11304D00E9466008EE30E9466008AE00E94660025
S11304E08EE00E94660080E00E9466008EE30E9417
S11304F0660080E00E9466008EE30E9466008AE146
S11305000E9466008EE20E94660080E00E946600FF
S11305108EE30E9466008AE20E94660080E00E94E8
S1130520660080E00E94660080E00E94660080E031
S11305300E94660080E00E94660080E00E946600DF
S1130540089580E00E94660080E00E94660080E0DA
S11305500E94660080E00E94660080E00E946600BF
S113056080E00E94660080E00E94660080E00E94B5
S113057066008EE30E94660088E00E9466008EE3B7
S11305800E94660080E00E9466008EE30E9466007E
S113059080E00E9466008EE30E94660082E20E9470
S11305A066008AE30E94660080E00E9466008EE393
S11305B00E94660088E00E9466008EE30E94660046
S11305C080E00E94660080E00E94660080E00E9455
S11305D0660080E00E94660080E00E9466008EE370
S11305E00E94660082E20E94660080E00E9466002B
S11305F08EE30E94660082E20E9466008EE30E94FF
S1130600660080E00E9466008EE30E94660084E03B
S11306100E94660088E00E94660084E00E946600F2
S11306208EE30E94660080E00E9466008EE30E94D2
S1130630660084E00E94660088E00E94660084E010
S11306400E9466008EE30E94660080E00E946600BD
S11306508EE30E9466008AE00E9466008EE30E9498
S1130660660080E00E9466008EE30E94660084E0DB
S11306700E94660088E00E9466008EE30E94660085
S113068080E00E9466008EE30E94660082E20E947F
S113069066008CE10E94660080E00E94660080E0B3
S11306A00E94660080E00E94660080E00E9466006E
S11306B080E00E94660080E00E94660080E00E9464
S11306C06600089582E00E9466008EE30E94660040
S11306D082E00E94660080E00E9466008EE30E9431
S11306E0660080E00E9466008EE30E94660084E05B
S11306F00E94660088E00E94660084E00E94660012
S11307008EE30E94660080E00E9466008EE30E94F1
S113071066008AE20E94660080E00E94660080E033
S11307200E9466008EE30E94660080E00E946600DC
S11307308CE20E9466008AE20E9466008AE10E94BE
S1130740660080E00E94660080E00E9466008EE3FE
S11307500E9466008AE10E9466008EE20E946600A2
S113076080E00E9466008EE30E94660080E20E94A0
S113077066008EE30E94660080E00E9466008EE3BD
S11307800E94660084E00E94660088E00E94660081
S11307908EE30E94660080E00E9466008EE30E9461
S11307A0660084E00E94660088E00E9466008EE392
S11307B00E94660080E00E9466008EE30E9466004C
S11307C080E00E9466008EE30E94660084E00E943E
S11307D0660088E00E9466008EE30E94660080E066
S11307E00E9466008EE30E94660082E20E94660018
S11307F08AE30E94660080E00E94660080E00E9416
S113080066008EE30E94660082E20E9466008EE328
S11308100E94660080E00E9466008EE30E946600EB
S113082080E20E9466008EE30E94660080E00E94DF
S1130830660082E00E9466008EE30E94660082E009
S11308400E9466000895811103C00E946B00089500
S1130850813019F40E9478000895823019F40E94BE
S113086085000895833019F40E949200089584301D
S113087019F40E949F000895853019F40E94AC0079
S11308800895863019F40E94B9000895873019F448
S11308900E94C6000895883019F40E94D300089578
S11308A0893011F40E94E0000895CF93CDEC8C9F21
S11308B0C12D1124C695C695C695CC0F9C2F990FB2
S11308C0990FC90F982F9C1BC92F282F30E0C901FD
S11308D08C1B91096AE070E00E940411862F0E942B
S11308E023048C2F0E942304CF910895811113C0F7
S11308F08EE30E9466008AE00E9466008EE30E94F6
S1130900660080E00E94660080E00E94660080E04D
S11309100E9466000895813099F48EE30E94660077
S11309208AE20E94660084E10E94660080E00E94E0
S1130930660080E00E94660080E00E9466000895E0
S1130940823099F48EE30E94660082E20E9466007F
S113095080E00E94660080E00E94660080E00E94C1
S1130960660080E00E9466000895833099F48EE367
S11309700E94660082E20E9466008CE10E9466008A
S113098080E00E94660080E00E94660080E00E9491
S113099066000895843099F48EE30E9466008AE22A
S11309A00E94660080E00E94660080E00E9466006B
S11309B080E00E94660080E00E9466000895853011
S11309C099F48EE30E9466008AE00E9466008AE041
S11309D00E94660080E00E94660080E00E9466003B
S11309E080E00E9466000895863099F48EE30E94A8
S11309F0660082E20E9466008AE30E94660080E04C
S1130A000E94660080E00E94660080E00E9466000A
S1130A100895873099F48EE30E94660088E00E946E
S1130A2066008EE30E94660080E00E94660080E01B
S1130A300E94660080E00E9466000895883099F460
S1130A408EE30E94660080E00E94660080E00E94BF
S1130A50660080E00E94660080E00E94660080E0FC
S1130A600E9466000895893099F480E30E9466002C
S1130A7080E20E9466008EE30E94660080E00E948D
S1130A80660080E00E94660080E00E94660008958F
S1130A908A3099F48EE30E9466008CE10E9466001D
S1130AA086E30E94660080E00E94660080E00E9467
S1130AB0660080E00E94660008958B3099F48EE30E
S1130AC00E94660080E20E94660080E20E94660046
S1130AD080E00E94660080E00E94660080E00E9440
S1130AE0660008958C3099F48EE30E94660084E0D9
S1130AF00E94660088E00E94660084E00E9466000E
S1130B008EE30E94660080E00E94660008958D30A6
S1130B1099F48EE30E94660084E00E94660088E0F7
S1130B200E9466008EE30E94660080E00E946600D8
S1130B3080E00E94660008958E3099F48EE30E944E
S1130B40660082E20E9466008EE30E94660080E0F6
S1130B500E94660080E00E94660080E00E946600B9
S1130B6008958F3099F48EE30E9466008AE00E9413
S1130B7066008EE00E94660080E00E94660080E0CD
S1130B800E94660080E00E9466000895803199F416
S1130B908EE30E94660082E70E94660086E20E945D
S1130BA066008CE30E94660080E00E94660080E09C
S1130BB00E9466000895813199F48EE30E946600D4
S1130BC08AE10E9466008EE20E94660080E00E9434
S1130BD0660080E00E94660080E00E94660008953E
S1130BE0823199F48CE20E9466008AE20E946600D7
S1130BF08AE10E94660080E00E94660080E00E9414
S1130C00660080E00E9466000895833199F482E0D2
S1130C100E9466008EE30E94660082E00E946600E5
S1130C2080E00E94660080E00E94660080E00E94EE
S1130C3066000895843199F48EE30E94660080E290
S1130C400E9466008EE30E94660080E00E946600B7
S1130C5080E00E94660080E00E946600089585316D
S1130C6099F48EE10E94660080E20E9466008EE1A3
S1130C700E94660080E00E94660080E00E94660098
S1130C8080E00E9466000895863199F48EE30E9404
S1130C90660080E10E94660088E00E94660080E1B0
S1130CA00E9466008EE30E94660080E00E94660057
S1130CB00895873199F482E20E94660084E10E94DB
S1130CC0660088E00E94660084E10E94660082E279
S1130CD00E94660080E00E9466000895883199F4BD
S1130CE08EE00E94660088E30E9466008EE00E9407
S1130CF0660080E00E94660080E00E94660080E05A
S1130D000E9466000895893191F482E30E9466008E
S1130D108AE20E94660086E20E94660080E00E94E9
S1130D20660080E00E94660080E00E9466000895EC
S1130D30CF93C0E480E00E946600C150D9F7CF9100
S1130D4008958CE20E9466008AE20E9466008AE1AD
S1130D500E94660080E00E94660082E00E946600B5
S1130D608EE30E94660082E00E94660080E00E949A
S1130D7066008EE30E94660082E20E9466008EE3B3
S1130D800E94660080E00E9466008EE30E94660076
S1130D908AE00E9466008EE00E94660080E00E9465
S1130DA0660080E00E94660080E00E94660080E0A9
S1130DB00E9466008EE30E9466008AE00E9466003C
S1130DC08EE30E94660080E00E9466008EE30E942B
S1130DD0660084E00E94660088E00E9466008EE35C
S1130DE00E94660080E00E9466008EE30E94660016
S1130DF082E20E9466008CE10E94660080E00E940C
S1130E00660080E00E94660080E00E94660080E048
S1130E100E9466008EE30E94660084E00E946600E1
S1130E2088E00E94660084E00E9466008EE30E94CF
S1130E30660080E00E9466008EE30E9466008AE2FB
S1130E400E94660080E00E9466008EE30E946600B5
S1130E5082E20E9466008CE10E94660080E00E94AB
S1130E6066008EE30E94660080E00E94660082E0D5
S1130E700E9466008EE30E94660082E00E94660083
S1130E8080E00E9466008EE30E9466008AE00E9471
S1130E9066008EE30E94660080E00E94660082E0A5
S1130EA00E9466008EE30E94660082E00E94660053
S1130EB080E00E9466008EE30E9466008AE20E943F
S1130EC066000895CF93CDE080E00E946600C15093
S1130ED0D9F782E00E9466008EE30E94660082E0F9
S1130EE00E94660080E00E9466008EE30E94660015
S1130EF08AE20E94660080E00E9466008EE30E94FF
S1130F00660084E00E94660088E00E9466008EE32A
S1130F100E94660080E00E9466008EE30E946600E4
S1130F2082E20E9466008CE10E94660080E00E94DA
S1130F30660080E00E94660080E00E94660080E017
S1130F400E94660080E00E94660080E00E946600C5
S1130F508CE20E9466008AE20E9466008AE10E9496
S1130F60660080E00E9466008EE30E9466008AE2CA
S1130F700E94660080E00E9466008EE30E94660084
S1130F8080E20E94660080E20E94660080E00E9487
S1130F9066008EE30E9466008AE00E9466008AE092
S1130FA00E946600C0E180E00E946600C150D9F74B
S1130FB0CF910895CF9380E00E9466008EE30E9453
S1130FC0660082E20E94660080E00E9466008EE372
S1130FD00E94660080E20E94660080E20E94660031
S1130FE080E00E9466008EE30E94660080E00E941A
S1130FF066008EE30E94660084E00E94660088E03A
S11310000E94660084E00E9466008EE30E946600EF
S113101080E00E9466008EE30E9466008AE20E94DD
S1131020660084E10E946600C7E080E00E946600DA
S1131030C150D9F78EE30E94660084E00E946600E6
S113104088E00E94660084E00E9466008EE30E94AD
S1131050660080E00E9466008EE30E9466008AE0DB
S11310600E9466008EE30E94660080E00E94660093
S11310708EE30E9466008AE10E9466008EE20E946E
S1131080660080E00E9466008CE20E9466008AE2AC
S11310900E9466008AE10E946600C7E080E00E9428
S11310A06600C150D9F78EE30E94660088E00E9472
S11310B066008EE30E94660080E00E9466008EE374
S11310C00E94660080E00E9466008EE30E94660033
S11310D080E20E94660080E20E94660080E00E9436
S11310E066008EE30E94660080E20E94660080E251
S11310F00E94660080E00E946600CF910895CF931D
S113110080E00E94660080E00E94660080E00E9409
S1131110660080E00E9466008EE30E9466008AE218
S11311200E94660084E10E94660080E00E946600DE
S11311308EE30E9466008AE20E94660080E00E94BC
S113114066008EE30E94660084E00E94660088E0E8
S11311500E9466008EE30E94660080E00E946600A2
S11311608EE30E9466008AE20E94660080E00E948C
S113117066008EE30E9466008AE00E9466008AE0B0
S11311800E94660080E00E9466008EE30E94660072
S113119080E00E94660082E00E9466008EE30E9466
S11311A0660082E00E946600C6E080E00E9466005D
S11311B0C150D9F78EE30E94660084E00E94660065
S11311C088E00E9466008EE30E94660080E00E9430
S11311D066008EE30E9466008AE20E94660080E058
S11311E00E9466008EE30E9466008AE00E94660008
S11311F08EE30E94660080E00E9466008EE30E94F7
S113120066008AE10E9466008EE20E94660080E029
S11312100E9466008EE30E9466008AE20E946600D5
S113122080E00E9466008CE20E9466008AE20E94CE
S113123066008AE10E94660080E00E94660082E007
S11312400E9466008EE30E94660082E00E946600AF
S113125080E00E94660080E00E94660080E00E94B8
S1131260660080E00E946600CF910895CF93C3E1A9
S113127080E00E946600C150D9F78EE30E946600A8
S11312808AE00E9466008EE00E94660080E00E9470
S113129066008EE30E9466008AE20E94660080E097
S11312A00E9466008EE30E9466008AE10E94660046
S11312B08EE20E94660080E00E9466008CE20E943A
S11312C066008AE20E9466008AE10E94660080E06D
S11312D00E9466008EE30E94660082E20E9466001D
S11312E08EE30E94660080E00E9466008EE30E9406
S11312F0660084E00E94660088E00E9466008EE337
S11313000E946600C6E180E00E946600C150D9F7E1
S1131310CF910895CF93C6E080E00E946600C1504B
S1131320D9F78EE30E9466008AE00E9466008AE094
S11313300E94660080E00E9466008EE30E946600C0
S113134080E00E94660082E20E94660084E10E94BE
S1131350660088E00E94660084E10E94660082E2E2
S11313600E946600CAE080E00E946600C150D9F77E
S11313708CE20E9466008AE20E9466008AE10E9472
S1131380660080E00E9466008EE30E94660082E2AE
S11313900E9466008EE30E94660080E00E94660060
S11313A08EE30E94660084E00E94660088E00E944A
S11313B0660084E00E9466008EE30E94660080E07E
S11313C00E9466008EE30E9466008AE20E94660024
S11313D080E00E94660082E00E9466008EE30E9424
S11313E0660082E00E94660080E00E9466008EE350
S11313F00E94660088E00E9466008EE30E946600F8
S113140080E00E9466008EE30E94660080E00E94F5
S113141066008EE30E94660084E00E94660088E015
S11314200E9466008EE30E94660080E00E946600CF
S11314308EE30E94660082E20E9466008AE30E94B4
S11314406600C5E080E00E946600C150D9F7CF91E4
S11314500895CF93C3E180E00E946600C150D9F79C
S11314608EE30E94660082E20E9466008AE30E9484
S1131470660080E00E9466008EE30E94660082E2BD
S11314800E9466008EE30E946600C6E080E00E942F
S11314906600C150D9F782E00E9466008EE30E9484
S11314A0660082E00E94660080E00E9466008EE38F
S11314B00E94660082E20E9466008EE30E9466003B
S11314C0C8E180E00E946600C150D9F7CF91089529
S11314D0CF93DF93D82FC5E080E00E946600C1500F
S11314E0D9F78EE30E94660082E20E9466008AE3D6
S11314F00E94660080E00E9466008EE30E946600FF
S11315008AE20E94660080E00E94660082E00E94F7
S113151066008EE30E94660082E00E946600C0E1DD
S113152080E00E946600C150D9F7D13009F052C062
S113153080911901DFE48D9F912D11249695969544
S11315409695CAE19C9F801911240E94760480E03C
S11315500E94660080E00E94660080E00E946600AF
S113156080911A018D9F912D1124969596959695AB
S11315709C9F801911240E94760480E00E946600DA
S113158080E00E94660080E00E94660080911B015A
S11315908D9F912D11249695969596959C9F8019D3
S11315A011240E94760480E00E94660080E00E947C
S11315B0660080E00E94660080911C018D9FD12D01
S11315C01124D695D695D695DC9F801911240E94B6
S11315D0760454C0D23009F051C080910F01DFE489
S11315E08D9F912D1124969596959695CAE19C9F71
S11315F0801911240E94760480E00E94660080E035
S11316000E94660080E00E946600809110018D9F18
S1131610912D11249695969596959C9F8019112449
S11316200E94760480E00E94660080E00E946600CA
S113163080E00E946600809111018D9F912D1124FC
S11316409695969596959C9F801911240E947604F0
S113165080E00E94660080E00E94660080E00E94B4
S11316606600809112018D9FD12D1124D695D695B7
S1131670D695DC9F801911240E947604DF91CF91C6
S11316800895CF9380E00E94660080E00E94660087
S113169080E00E94660080E00E9466008EE30E9463
S11316A0660082E20E94660080E00E9466008EE38B
S11316B00E94660088E00E9466008EE30E94660035
S11316C080E00E9466008EE30E9466008AE00E9429
S11316D066008EE30E94660080E00E9466008EE34E
S11316E00E94660084E00E94660088E00E94660012
S11316F08EE30E94660080E00E9466008EE30E94F2
S1131700660082E20E9466008AE30E94660080E02E
S11317100E9466008EE30E9466008AE20E946600D0
S1131720C8E080E00E946600C150D9F78EE30E94B1
S113173066008AE20E94660084E10E94660080E0FE
S11317400E9466008EE30E9466008AE20E946600A0
S113175080E00E9466008EE30E9466008AE00E9498
S113176066008EE30E94660080E00E9466008EE3BD
S11317700E9466008AE10E9466008EE20E94660072
S113178080E00E9466008EE30E94660080E00E9472
S113179066008EE30E94660084E00E94660088E092
S11317A00E9466008EE30E94660080E00E9466004C
S11317B08EE30E94660082E20E9466008AE30E9431
S11317C06600C5E080E00E946600C150D9F7CF9161
S11317D00895CF93DF93D82FCCE080E00E94660079
S11317E0C150D9F782E00E9466008EE30E94660031
S11317F082E00E94660080E00E9466008EE30E9400
S1131800660082E20E9466008EE30E946600C1E1E7
S113181080E00E946600C150D9F7D13009F065C05C
S113182080911901877049F48DE00E947604C6E026
S113183080E00E946600C150D9F780911901877039
S1131840813049F482E10E947604C6E080E00E947F
S11318506600C150D9F7809119018770823049F42C
S113186084E00E947604C6E080E00E946600C150D5
S1131870D9F7809119018770833049F486E10E9479
S11318807604C6E080E00E946600C150D9F78091DA
S113189019018770843031F48DE00E94760484E06D
S11318A00E947604809119018770853031F48DE0AF
S11318B00E94760486E10E94760480911901877063
S11318C0863031F482E10E94760483E00E9476043B
S11318D0809119018770873009F074C082E10E94F9
S11318E0760486E10E9476046DC0D23009F06AC0A5
S11318F080910F01877049F48DE00E947604C6E060
S113190080E00E946600C150D9F780910F01877072
S1131910813049F482E10E947604C6E080E00E94AE
S11319206600C150D9F780910F018770823049F465
S113193084E00E947604C6E080E00E946600C15004
S1131940D9F780910F018770833049F486E10E94B2
S11319507604C6E080E00E946600C150D9F7809109
S11319600F018770843031F48DE00E94760484E0A6
S11319700E94760480910F018770853031F48DE0E8
S11319800E94760486E10E94760480910F0187709C
S1131990863031F482E10E94760483E00E9476046A
S11319A080910F018770873069F482E10E94760488
S11319B086E10E94760406C080E00E946600C15061
S11319C0D9F702C0C0E1F8CFDF91CF910895EF922B
S11319D0FF921F93CF93DF9310E00F2EFDE0EF2EC5
S11319E0F1E0FF2EF02DC7E1D1E0812F806B0E9442
S11319F0610082E10E94610080E00E946100111197
S1131A0031C0809109010E9455040E94ED0080912B
S1131A1008010E945504809107010E945504809199
S1131A2006010E945504809105010E94550480E03E
S1131A300E94660080E00E94660080E00E946600CA
S1131A4080E00E94660080E00E94660080E00E94C0
S1131A50660080E00E94660080E00E9466000E94AA
S1131A60F40050C0113019F40E94620389C012308E
S1131A7009F048C084E10E945504809100010E944D
S1131A80550480E00E94660088E00E94660088E0B9
S1131A900E946600809101010E94550480E00E942A
S1131AA0660088E00E94660088E00E9466008091DB
S1131AB002010E94550480E00E94660080E00E94BA
S1131AC0660080E00E94660080E00E94660080E07C
S1131AD00E94660080E00E946600809103010E94DB
S1131AE0550480E00E94660088E30E94660080E15D
S1131AF00E94660088E30E946600809104010E94AF
S1131B005504E9C01330E1F580912601811105C027
S1131B108091210181110E949806809126018111F2
S1131B2006C080912101811102C00E941F01809191
S1131B302601813029F48881853011F00E949806AD
S1131B4080912601823031F4F7018081853011F0D3
S1131B500E94980680912601813029F4888185307D
S1131B6011F40E94290A80912601823009F064C18F
S1131B70F7018081853009F05FC10E94290A5CC1A8
S1131B80143009F0A8C080912601811105C080910C
S1131B90210181110E94980680912601811106C0BD
S1131BA080912101811102C00E94E00180912601EF
S1131BB0813029F48881811102C00E94A10680919C
S1131BC02601813029F48881813011F40E94620752
S1131BD080912601813029F48881823011F40E9499
S1131BE0DA0780912601813029F48881833011F449
S1131BF00E947F0880912601813029F488818430F5
S1131C0011F40E948A0980912601813009F48881A7
S1131C1080912601813031F48881863019F481E085
S1131C200E94680A80912601813029F488818730D6
S1131C3011F40E94410B80912601823031F4F701A6
S1131C408081811102C00E94A10680912601823008
S1131C5031F4F7018081813011F40E946207809190
S1131C602601823031F4F7018081823011F40E9420
S1131C70DA0780912601823031F4F70180818330C4
S1131C8011F40E947F0880912601823031F4F7011B
S1131C908081843011F40E948A0980912601823067
S1131CA011F4F701808180912601823039F4F70123
S1131CB08081863019F482E00E94680A80912601AE
S1131CC0823009F0BEC0F7018081873009F0B9C0C5
S1131CD00E94410BB6C0153009F0AEC080912601B8
S1131CE0811105C08091210181110E949806809183
S1131CF02601811106C080912101811102C00E9438
S1131D00A10280912601813031F480911701811163
S1131D1002C00E94980680912601813031F480919E
S1131D201701813011F40E949806809126018130B8
S1131D3031F480911701823011F40E949806809149
S1131D402601813031F480911701833011F40E940F
S1131D50360980912601813031F480911701843055
S1131D6011F40E94980680912601813011F480912B
S1131D70170180912601813031F48091170186305A
S1131D8011F40E94980680912601813039F48091E3
S1131D901701873019F481E00E94E90B8091260134
S1131DA0823031F480910D01811102C00E949806A5
S1131DB080912601823031F480910D01813011F43B
S1131DC00E94980680912601823031F480910D01A1
S1131DD0823011F40E94980680912601823031F4F9
S1131DE080910D01833011F40E94360980912601FF
S1131DF0823031F480910D01843011F40E949806F0
S1131E0080912601823011F480910D018091260188
S1131E10823031F480910D01863011F40E949806CD
S1131E2080912601823079F480910D01873059F434
S1131E3082E00E94E90B07C01F5F163009F0D5CD80
S1131E4002C01F5FD2CDDF91CF911F91FF90EF9021
S1131E5008951F920F920FB60F92112410920C0145
S1131E600F900FBE0F901F9018951092700080E293
S1131E708093B6001092B200E1EBF0E080818360C1
S1131E808083E6EBF0E080818171E9F781E087BB34
S1131E908093700008951F920F920FB60F92112431
S1131EA02F933F934F935F936F937F938F939F935E
S1131EB0AF93BF93EF93FF93499B09C08091210196
S1131EC0811105C01092220181E0809325014B9B72
S1131ED00FC08091250181110BC0809126018F5F75
S1131EE08093260180912601833010F01092260100
S1131EF0809123018130E9F5809125018130C9F574
S1131F008091220181111CC080E090E0FC01E95E17
S1131F10FE4F2081FC01E35FFE4F208301968A304F
S1131F209105A1F7E0912201F0E0809124018770EE
S1131F30E95EFE4F8083809122018F5F80932201AE
S1131F4080912201882369F0E0912201F0E08091E0
S1131F502401E95EFE4F8083809122018F5F80938C
S1131F60220180912201883010F0109225011092F4
S1131F70230180910C01811103C08FEA0E9461004A
S1131F8080910C01833240F40E94E70C80910C0193
S1131F908F5F80930C010BC080910C01833238F069
S1131FA080912501811103C08EEA0E946100809115
S1131FB00501815080930501809105018F3F61F5F2
S1131FC083E6809305018091060181508093060188
S1131FD0809106018F3F01F583E68093060180918D
S1131FE00701815080930701809107018F3FA1F47D
S1131FF083E6809307018091080181508093080152
S1132000809108018F3F41F483E680930801809119
S1132010090181508093090180910B018F5F8093A6
S11320200B0180910B01837009F076C080910A0145
S11320308F5F80930A0180910A018C3309F06CC090
S113204010920A01809104018F5F809304018091B2
S113205004018C3309F060C01092040180910301E3
S11320608F5F8093030180912101882329F080915F
S1132070210181508093210180910301883109F06D
S11320804BC010920301809102018F5F8093020183
S113209080910201803261F1809102018F3181F4DB
S11320A080910101843021F180910101863001F198
S11320B0809101018930E1F0809101018B30C1F000
S11320C080910101823041F4809102018D3121F42B
S11320D080910001837061F4809101018230E1F408
S11320E0809102018E31C1F4809100018370A1F4CA
S11320F081E080930201809101018F5F809301014F
S1132100809101018D3041F481E08093010180913F
S113211000018F5F80930001FF91EF91BF91AF9118
S11321209F918F917F916F915F914F913F912F91EB
S11321300F900FBE0F901F9018958FE284B91AB8B4
S11321400E94350F789483B7817F866083BFE8E669
S1132150F0E0808184608083EDE6F0E0808184603B
S113216080830E945300299A81EE94E00197F1F74D
S113217000C0000085B18C7F85B983EC99E001979C
S1132180F1F700C00000299A8DE80E94610084E103
S11321900E9461008FEA0E94610080EB0E9461004E
S11321A0D0E010E08D2F806B0E946100C12F8C2F36
S11321B08F700E946600CF5FC038C9F7DF5FD630EA
S11321C089F790E020E031E00EC09F5F4B9B0BC08D
S11321D080912301811107C090932401309323013E
S11321E0922F01C0922F80912501813071F380914B
S11321F025018111F7CF83B7816083BF889583B7A9
S11322008E7F83BF922FEFCF97FB072E16F4009497
S113221007D077FD09D00E94181107FC05D03EF4C1
S1132220909581959F4F0895709561957F4F08957E
S1132230AA1BBB1B51E107C0AA1FBB1FA617B707E8
S113224010F0A61BB70B881F991F5A95A9F7809504
S10F22509095BC01CD010895F894FFCFD7
S10D225C1004180F36602B490544E6
S9030000FC
