:100000000C9434000C9451000C9451000C94510049
:100010000C9451000C94A1110C9451000C945100BB
:100020000C9451000C94C3110C9451000C94510089
:100030000C9451000C9451000C9451000C945100FC
:100040000C9451000C9451000C9451000C945100EC
:100050000C9451000C9451000C9451000C945100DC
:100060000C9451000C94510011241FBECFEFD8E026
:10007000DEBFCDBF12E0A0E0B1E0E4EAF7E202C0EB
:1000800005900D92AA30B107D9F722E0AAE0B2E0BC
:1000900001C01D92A732B207E1F70E941F130C9412
:1000A000D0130C94000084B18C6284B92A9A81E543
:1000B0008CBD08952A988EBD0DB407FEFDCF2A9AF7
:1000C000089528980E945A00289A0895289A0E9414
:1000D0005A002898089580E00E9466008EE30E94EE
:1000E000660082E20E9466008EE30E946600089528
:1000F00080E00E94660080E00E94660080E00E942E
:1001000066008EE30E946600089580E00E9466000B
:100110008AE30E9466008AE20E9466008EE20E94E4
:100120006600089580E00E9466008AE20E946600F0
:100130008AE20E9466008EE30E946600089580E0D5
:100140000E9466008EE00E94660088E00E946600C1
:100150008EE30E946600089580E00E9466008EE2B1
:100160000E9466008AE20E9466008AE30E9466009E
:10017000089580E00E9466008EE30E9466008AE295
:100180000E9466008AE30E946600089580E00E9453
:10019000660082E00E94660082E00E9466008EE3B4
:1001A0000E946600089580E00E9466008EE30E942F
:1001B00066008AE20E9466008EE30E94660008954F
:1001C00080E00E9466008EE00E9466008AE00E9445
:1001D00066008EE30E946600089580E00E9466003B
:1001E00080E20E946600089580E00E9466008EE32F
:1001F0000E94660082E20E94660080E00E94660023
:1002000082E40E94660085E20E94660082E10E940C
:10021000660088E00E94660084E20E94660082E533
:100220000E94660081E20E94660080E00E946600F3
:1002300082E20E9466008EE30E946600089580E0DC
:100240000E94660080E00E94660080E00E946600D6
:100250008EE30E94660084E00E94660088E00E94AF
:1002600066008EE30E94660080E00E9466008EE3D6
:100270000E9466008AE20E94660080E00E9466009A
:100280008EE30E94660080E10E94660088E00E9482
:10029000660080E10E9466008EE30E94660080E0B6
:1002A0000E94660080E00E94660080E00E94660076
:1002B0008EE30E94660082E20E9466008EE30E9446
:1002C000660080E00E9466008EE30E9466008AE17C
:1002D0000E9466008EE20E94660080E00E94660036
:1002E0008EE30E94660082E20E9466008CE10E941A
:1002F000660080E00E9466008EE30E9466008AE24B
:100300000E94660080E00E9466008EE30E94660004
:100310008AE10E9466008EE20E94660080E00E94F0
:1003200066008CE20E9466008AE20E9466008AE112
:100330000E94660080E00E94660080E00E946600E5
:1003400080E00E9466008EE30E9466008AE00E94C0
:1003500066008AE00E94660080E00E9466008EE3EC
:100360000E9466008AE10E9466008EE20E9466009A
:1003700080E00E9466008EE30E94660082E20E9496
:1003800066008EE30E94660080E00E9466008EE3B5
:100390000E94660084E00E94660088E00E94660079
:1003A00084E00E9466008EE30E94660080E00E9466
:1003B000660080E00E94660080E00E94660008956A
:1003C00080E00E94660080E00E94660080E00E945B
:1003D000660080E00E94660080E00E94660080E087
:1003E0000E9466008EE30E94660084E00E94660020
:1003F00088E00E94660084E00E9466008EE30E940E
:10040000660080E00E9466008EE30E9466008AE03B
:100410000E9466008EE30E94660080E00E946600F3
:100420008EE30E94660082E20E94660080E00E94E5
:1004300066008EE30E94660088E00E9466008EE3FC
:100440000E94660080E00E9466008EE30E946600C3
:1004500080E00E9466008EE30E94660084E00E94B5
:10046000660088E00E9466008EE30E94660080E0DD
:100470000E9466008EE30E9466008AE20E94660087
:1004800080E00E94660080E00E94660080E00E949A
:10049000660080E00E94660080E00E9466008EE3B5
:1004A0000E9466008AE20E94660080E00E94660068
:1004B0008EE30E94660084E00E94660088E00E944D
:1004C000660084E00E9466008EE30E94660080E081
:1004D0000E9466008EE30E9466008AE00E94660029
:1004E0008EE00E94660080E00E9466008EE30E941B
:1004F000660080E00E9466008EE30E9466008AE14A
:100500000E9466008EE20E94660080E00E94660003
:100510008EE30E9466008AE20E94660080E00E94EC
:10052000660080E00E94660080E00E94660080E035
:100530000E94660080E00E94660080E00E946600E3
:10054000089580E00E94660080E00E94660080E0DE
:100550000E94660080E00E94660080E00E946600C3
:1005600080E00E94660080E00E94660080E00E94B9
:1005700066008EE30E94660088E00E9466008EE3BB
:100580000E94660080E00E9466008EE30E94660082
:1005900080E00E9466008EE30E94660082E20E9474
:1005A00066008AE30E94660080E00E9466008EE397
:1005B0000E94660088E00E9466008EE30E9466004A
:1005C00080E00E94660080E00E94660080E00E9459
:1005D000660080E00E94660080E00E9466008EE374
:1005E0000E94660082E20E94660080E00E9466002F
:1005F0008EE30E94660082E20E9466008EE30E9403
:10060000660080E00E9466008EE30E94660084E03F
:100610000E94660088E00E94660084E00E946600F6
:100620008EE30E94660080E00E9466008EE30E94D6
:10063000660084E00E94660088E00E94660084E014
:100640000E9466008EE30E94660080E00E946600C1
:100650008EE30E9466008AE00E9466008EE30E949C
:10066000660080E00E9466008EE30E94660084E0DF
:100670000E94660088E00E9466008EE30E94660089
:1006800080E00E9466008EE30E94660082E20E9483
:1006900066008CE10E94660080E00E94660080E0B7
:1006A0000E94660080E00E94660080E00E94660072
:1006B00080E00E94660080E00E94660080E00E9468
:1006C0006600089582E00E9466008EE30E94660044
:1006D00082E00E94660080E00E9466008EE30E9435
:1006E000660080E00E9466008EE30E94660084E05F
:1006F0000E94660088E00E94660084E00E94660016
:100700008EE30E94660080E00E9466008EE30E94F5
:1007100066008AE20E94660080E00E94660080E037
:100720000E9466008EE30E94660080E00E946600E0
:100730008CE20E9466008AE20E9466008AE10E94C2
:10074000660080E00E94660080E00E9466008EE302
:100750000E9466008AE10E9466008EE20E946600A6
:1007600080E00E9466008EE30E94660080E20E94A4
:1007700066008EE30E94660080E00E9466008EE3C1
:100780000E94660084E00E94660088E00E94660085
:100790008EE30E94660080E00E9466008EE30E9465
:1007A000660084E00E94660088E00E9466008EE396
:1007B0000E94660080E00E9466008EE30E94660050
:1007C00080E00E9466008EE30E94660084E00E9442
:1007D000660088E00E9466008EE30E94660080E06A
:1007E0000E9466008EE30E94660082E20E9466001C
:1007F0008AE30E94660080E00E94660080E00E941A
:1008000066008EE30E94660082E20E9466008EE32C
:100810000E94660080E00E9466008EE30E946600EF
:1008200080E20E9466008EE30E94660080E00E94E3
:10083000660082E00E9466008EE30E94660082E00D
:100840000E9466000895811103C00E946B00089504
:10085000813019F40E9478000895823019F40E94C2
:1008600085000895833019F40E9492000895843021
:1008700019F40E949F000895853019F40E94AC007D
:100880000895863019F40E94B9000895873019F44C
:100890000E94C6000895883019F40E94D30008957C
:1008A000893011F40E94E0000895CF93CDEC8C9F25
:1008B000C12D1124C695C695C695CC0F9C2F990FB6
:1008C000990FC90F982F9C1BC92F282F30E0C90101
:1008D0008C1B91096AE070E00E948613862F0E94AB
:1008E00023048C2F0E942304CF910895811113C0FB
:1008F0008EE30E9466008AE00E9466008EE30E94FA
:10090000660080E00E94660080E00E94660080E051
:100910000E9466000895813099F48EE30E9466007B
:100920008AE20E94660084E10E94660080E00E94E4
:10093000660080E00E94660080E00E9466000895E4
:10094000823099F48EE30E94660082E20E94660083
:1009500080E00E94660080E00E94660080E00E94C5
:10096000660080E00E9466000895833099F48EE36B
:100970000E94660082E20E9466008CE10E9466008E
:1009800080E00E94660080E00E94660080E00E9495
:1009900066000895843099F48EE30E9466008AE22E
:1009A0000E94660080E00E94660080E00E9466006F
:1009B00080E00E94660080E00E9466000895853015
:1009C00099F48EE30E9466008AE00E9466008AE045
:1009D0000E94660080E00E94660080E00E9466003F
:1009E00080E00E9466000895863099F48EE30E94AC
:1009F000660082E20E9466008AE30E94660080E050
:100A00000E94660080E00E94660080E00E9466000E
:100A10000895873099F48EE30E94660088E00E9472
:100A200066008EE30E94660080E00E94660080E01F
:100A30000E94660080E00E9466000895883099F464
:100A40008EE30E94660080E00E94660080E00E94C3
:100A5000660080E00E94660080E00E94660080E000
:100A60000E9466000895893099F480E30E94660030
:100A700080E20E9466008EE30E94660080E00E9491
:100A8000660080E00E94660080E00E946600089593
:100A90008A3099F48EE30E9466008CE10E94660021
:100AA00086E30E94660080E00E94660080E00E946B
:100AB000660080E00E94660008958B3099F48EE312
:100AC0000E94660080E20E94660080E20E9466004A
:100AD00080E00E94660080E00E94660080E00E9444
:100AE000660008958C3099F48EE30E94660084E0DD
:100AF0000E94660088E00E94660084E00E94660012
:100B00008EE30E94660080E00E94660008958D30AA
:100B100099F48EE30E94660084E00E94660088E0FB
:100B20000E9466008EE30E94660080E00E946600DC
:100B300080E00E94660008958E3099F48EE30E9452
:100B4000660082E20E9466008EE30E94660080E0FA
:100B50000E94660080E00E94660080E00E946600BD
:100B600008958F3099F48EE30E9466008AE00E9417
:100B700066008EE00E94660080E00E94660080E0D1
:100B80000E94660080E00E9466000895803199F41A
:100B90008EE30E94660082E70E94660086E20E9461
:100BA00066008CE30E94660080E00E94660080E0A0
:100BB0000E9466000895813199F48EE30E946600D8
:100BC0008AE10E9466008EE20E94660080E00E9438
:100BD000660080E00E94660080E00E946600089542
:100BE000823199F48CE20E9466008AE20E946600DB
:100BF0008AE10E94660080E00E94660080E00E9418
:100C0000660080E00E9466000895833199F482E0D6
:100C10000E9466008EE30E94660082E00E946600E9
:100C200080E00E94660080E00E94660080E00E94F2
:100C300066000895843199F48EE30E94660080E294
:100C40000E9466008EE30E94660080E00E946600BB
:100C500080E00E94660080E00E9466000895853171
:100C600099F48EE10E94660080E20E9466008EE1A7
:100C70000E94660080E00E94660080E00E9466009C
:100C800080E00E9466000895863199F48EE30E9408
:100C9000660080E10E94660088E00E94660080E1B4
:100CA0000E9466008EE30E94660080E00E9466005B
:100CB0000895873199F482E20E94660084E10E94DF
:100CC000660088E00E94660084E10E94660082E27D
:100CD0000E94660080E00E9466000895883199F4C1
:100CE0008EE00E94660088E30E9466008EE00E940B
:100CF000660080E00E94660080E00E94660080E05E
:100D00000E9466000895893191F482E30E94660092
:100D10008AE20E94660086E20E94660080E00E94ED
:100D2000660080E00E94660080E00E9466000895F0
:100D3000CF93C0E480E00E946600C150D9F7CF9104
:100D400008958CE20E9466008AE20E9466008AE1B1
:100D50000E94660080E00E94660082E00E946600B9
:100D60008EE30E94660082E00E94660080E00E949E
:100D700066008EE30E94660082E20E9466008EE3B7
:100D80000E94660080E00E9466008EE30E9466007A
:100D90008AE00E9466008EE00E94660080E00E9469
:100DA000660080E00E94660080E00E94660080E0AD
:100DB0000E9466008EE30E9466008AE00E94660040
:100DC0008EE30E94660080E00E9466008EE30E942F
:100DD000660084E00E94660088E00E9466008EE360
:100DE0000E94660080E00E9466008EE30E9466001A
:100DF00082E20E9466008CE10E94660080E00E9410
:100E0000660080E00E94660080E00E94660080E04C
:100E10000E9466008EE30E94660084E00E946600E5
:100E200088E00E94660084E00E9466008EE30E94D3
:100E3000660080E00E9466008EE30E9466008AE2FF
:100E40000E94660080E00E9466008EE30E946600B9
:100E500082E20E9466008CE10E94660080E00E94AF
:100E600066008EE30E94660080E00E94660082E0D9
:100E70000E9466008EE30E94660082E00E94660087
:100E800080E00E9466008EE30E9466008AE00E9475
:100E900066008EE30E94660080E00E94660082E0A9
:100EA0000E9466008EE30E94660082E00E94660057
:100EB00080E00E9466008EE30E9466008AE20E9443
:100EC00066000895CF93CDE080E00E946600C15097
:100ED000D9F782E00E9466008EE30E94660082E0FD
:100EE0000E94660080E00E9466008EE30E94660019
:100EF0008AE20E94660080E00E9466008EE30E9403
:100F0000660084E00E94660088E00E9466008EE32E
:100F10000E94660080E00E9466008EE30E946600E8
:100F200082E20E9466008CE10E94660080E00E94DE
:100F3000660080E00E94660080E00E94660080E01B
:100F40000E94660080E00E94660080E00E946600C9
:100F50008CE20E9466008AE20E9466008AE10E949A
:100F6000660080E00E9466008EE30E9466008AE2CE
:100F70000E94660080E00E9466008EE30E94660088
:100F800080E20E94660080E20E94660080E00E948B
:100F900066008EE30E9466008AE00E9466008AE096
:100FA0000E946600C0E180E00E946600C150D9F74F
:100FB000CF910895CF9380E00E9466008EE30E9457
:100FC000660082E20E94660080E00E9466008EE376
:100FD0000E94660080E20E94660080E20E94660035
:100FE00080E00E9466008EE30E94660080E00E941E
:100FF00066008EE30E94660084E00E94660088E03E
:101000000E94660084E00E9466008EE30E946600F3
:1010100080E00E9466008EE30E9466008AE20E94E1
:10102000660084E10E946600C7E080E00E946600DE
:10103000C150D9F78EE30E94660084E00E946600EA
:1010400088E00E94660084E00E9466008EE30E94B1
:10105000660080E00E9466008EE30E9466008AE0DF
:101060000E9466008EE30E94660080E00E94660097
:101070008EE30E9466008AE10E9466008EE20E9472
:10108000660080E00E9466008CE20E9466008AE2B0
:101090000E9466008AE10E946600C7E080E00E942C
:1010A0006600C150D9F78EE30E94660088E00E9476
:1010B00066008EE30E94660080E00E9466008EE378
:1010C0000E94660080E00E9466008EE30E94660037
:1010D00080E20E94660080E20E94660080E00E943A
:1010E00066008EE30E94660080E20E94660080E255
:1010F0000E94660080E00E946600CF910895CF9321
:1011000080E00E94660080E00E94660080E00E940D
:10111000660080E00E9466008EE30E9466008AE21C
:101120000E94660084E10E94660080E00E946600E2
:101130008EE30E9466008AE20E94660080E00E94C0
:1011400066008EE30E94660084E00E94660088E0EC
:101150000E9466008EE30E94660080E00E946600A6
:101160008EE30E9466008AE20E94660080E00E9490
:1011700066008EE30E9466008AE00E9466008AE0B4
:101180000E94660080E00E9466008EE30E94660076
:1011900080E00E94660082E00E9466008EE30E946A
:1011A000660082E00E946600C6E080E00E94660061
:1011B000C150D9F78EE30E94660084E00E94660069
:1011C00088E00E9466008EE30E94660080E00E9434
:1011D00066008EE30E9466008AE20E94660080E05C
:1011E0000E9466008EE30E9466008AE00E9466000C
:1011F0008EE30E94660080E00E9466008EE30E94FB
:1012000066008AE10E9466008EE20E94660080E02D
:101210000E9466008EE30E9466008AE20E946600D9
:1012200080E00E9466008CE20E9466008AE20E94D2
:1012300066008AE10E94660080E00E94660082E00B
:101240000E9466008EE30E94660082E00E946600B3
:1012500080E00E94660080E00E94660080E00E94BC
:10126000660080E00E946600CF910895CF93C3E1AD
:1012700080E00E946600C150D9F78EE30E946600AC
:101280008AE00E9466008EE00E94660080E00E9474
:1012900066008EE30E9466008AE20E94660080E09B
:1012A0000E9466008EE30E9466008AE10E9466004A
:1012B0008EE20E94660080E00E9466008CE20E943E
:1012C00066008AE20E9466008AE10E94660080E071
:1012D0000E9466008EE30E94660082E20E94660021
:1012E0008EE30E94660080E00E9466008EE30E940A
:1012F000660084E00E94660088E00E9466008EE33B
:101300000E946600C6E180E00E946600C150D9F7E5
:10131000CF910895CF93C6E080E00E946600C1504F
:10132000D9F78EE30E9466008AE00E9466008AE098
:101330000E94660080E00E9466008EE30E946600C4
:1013400080E00E94660082E20E94660084E10E94C2
:10135000660088E00E94660084E10E94660082E2E6
:101360000E946600CAE080E00E946600C150D9F782
:101370008CE20E9466008AE20E9466008AE10E9476
:10138000660080E00E9466008EE30E94660082E2B2
:101390000E9466008EE30E94660080E00E94660064
:1013A0008EE30E94660084E00E94660088E00E944E
:1013B000660084E00E9466008EE30E94660080E082
:1013C0000E9466008EE30E9466008AE20E94660028
:1013D00080E00E94660082E00E9466008EE30E9428
:1013E000660082E00E94660080E00E9466008EE354
:1013F0000E94660088E00E9466008EE30E946600FC
:1014000080E00E9466008EE30E94660080E00E94F9
:1014100066008EE30E94660084E00E94660088E019
:101420000E9466008EE30E94660080E00E946600D3
:101430008EE30E94660082E20E9466008AE30E94B8
:101440006600C5E080E00E946600C150D9F7CF91E8
:101450000895CF93C3E180E00E946600C150D9F7A0
:101460008EE30E94660082E20E9466008AE30E9488
:10147000660080E00E9466008EE30E94660082E2C1
:101480000E9466008EE30E946600C6E080E00E9433
:101490006600C150D9F782E00E9466008EE30E9488
:1014A000660082E00E94660080E00E9466008EE393
:1014B0000E94660082E20E9466008EE30E9466003F
:1014C000C8E180E00E946600C150D9F7CF9108952D
:1014D0004F925F926F927F928F929F92AF92BF9244
:1014E000CF92DF92EF92FF921F93CF93DF93C82F9B
:1014F00080E00E94660088E00E9466008CE10E9405
:10150000660088E00E94660080E00E94660080E03D
:101510000E94660080E00E94660083E20E945504FB
:101520000E94ED00C13031F4109119021F718091B9
:101530001A0208C0C23009F04FC010910F021F718B
:10154000809110028F3708F449C0812E912C8F733F
:10155000482E512C612C712CE401CC0FDD1FCC0FD7
:10156000DD1FC058DE4F688179818A819B810F2EF3
:10157000FAE08F2E912CA12CB12CF02DA501940115
:101580000E949A13CA01B901640D751D861D971D2D
:101590000F2EF4E6CF2ED12CE12CF12CF02DA7014B
:1015A00096010E949A13822F0E94550468817981C6
:1015B0008A819B81A50194010E949A13CA01B901F5
:1015C000640D751D861D971DA70196010E949A1333
:1015D000862F0E94550447C080E010E0C12FD0E064
:1015E0008F73882E912CA12CB12CCC0FDD1FCC0F2A
:1015F000DD1FC058DE4F688179818A819B810F2E63
:10160000FAE04F2E512C612C712CF02DA301920188
:101610000E949A13CA01B901681979098A099B09BC
:101620000F2EF4E6CF2ED12CE12CF12CF02DA701BA
:1016300096010E949A13822F0E9455046881798135
:101640008A819B81A30192010E949A13CA01B90168
:10165000681979098A099B09A70196010E949A13C2
:10166000862F0E945504E12FF0E0EE0FFF1FEE0FD2
:10167000FF1FE058FE4F60817181828193812AE0D3
:1016800030E040E050E00E949A13862F0E9423042D
:1016900080E00E94660080E00E94660080E00E9478
:1016A000660080E00E94660080E00E94660080E0A4
:1016B0000E9466008EE30E94660082E20E9466003D
:1016C00080E00E94660080E00E94660082E00E9446
:1016D000660085E00E94660082E00E94660080E06D
:1016E0000E9466008DE00E94760480E00E94660001
:1016F00082E20E9466008EE30E94660080E00E9403
:10170000660080E00E94660080E00E94660080E043
:101710000E946600DF91CF911F91FF90EF90DF90C4
:10172000CF90BF90AF909F908F907F906F905F9081
:101730004F9008954F925F926F927F928F929F92F7
:10174000AF92BF92CF92DF92EF92FF921F93CF930F
:10175000DF93C82F80E00E94660088E00E94660048
:1017600088E00E94660088E00E94660080E00E9497
:10177000660080E00E9466008EE30E9466008BE0B7
:101780000E9455040E94ED00C13031F410911902FD
:101790001F7180911B0208C0C23009F04FC0109128
:1017A0000F021F71809111028F3708F449C0812EFA
:1017B000912C8F73482E512C612C712CE401CC0F8D
:1017C000DD1FCC0FDD1FC050DF4F688179818A811A
:1017D0009B810F2EFAE08F2E912CA12CB12CF02D95
:1017E000A50194010E949A13CA01B901640D751DE7
:1017F000861D971D0F2EF4E6CF2ED12CE12CF12C57
:10180000F02DA70196010E949A13822F0E94550481
:10181000688179818A819B81A50194010E949A1334
:10182000CA01B901640D751D861D971DA70196019A
:101830000E949A13862F0E94550447C080E010E052
:10184000C12FD0E08F73882E912CA12CB12CCC0FFE
:10185000DD1FCC0FDD1FC050DF4F688179818A8189
:101860009B810F2EFAE04F2E512C612C712CF02D04
:10187000A30192010E949A13CA01B901681979095A
:101880008A099B090F2EF4E6CF2ED12CE12CF12CE6
:10189000F02DA70196010E949A13822F0E945504F1
:1018A000688179818A819B81A30192010E949A13A8
:1018B000CA01B901681979098A099B09A70196012A
:1018C0000E949A13862F0E945504E12FF0E0EE0F3C
:1018D000FF1FEE0FFF1FE050FF4F6081718182817B
:1018E00093812AE030E040E050E00E949A13862F76
:1018F0000E94230480E00E94660080E00E9466004F
:1019000080E00E94660080E00E94660080E00E9405
:10191000660080E00E9466008EE30E94660082E21C
:101920000E94660080E00E94660080E00E946600DF
:1019300082E00E94660085E00E94660082E00E94CC
:10194000660080E00E94660084E00E94760480E0E9
:101950000E94660082E20E9466008EE30E9466009A
:1019600080E00E94660080E00E94660080E00E94A5
:10197000660080E00E946600DF91CF911F91FF908A
:10198000EF90DF90CF90BF90AF909F908F907F901F
:101990006F905F904F900895CF93DF93D82FC5E05D
:1019A00080E00E946600C150D9F78EE30E94660075
:1019B00082E20E9466008AE30E94660080E00E9444
:1019C00066008EE30E9466008AE20E94660080E064
:1019D0000E94660082E00E9466008EE30E9466001C
:1019E00082E00E946600C0E180E00E946600C15073
:1019F000D9F7D13009F052C080911902DFE48D9FF0
:101A0000912D1124969596959695CAE19C9F8019E3
:101A100011240E94760480E00E94660080E00E940B
:101A2000660080E00E94660080911A028D9F912DD1
:101A300011249695969596959C9F801911240E9445
:101A4000760480E00E94660080E00E94660080E0EC
:101A50000E94660080911B028D9F912D1124969506
:101A6000969596959C9F801911240E94760480E09B
:101A70000E94660080E00E94660080E00E9466008E
:101A800080911C028D9FD12D1124D695D695D69587
:101A9000DC9F801911240E94760454C0D23009F0D2
:101AA00051C080910F02DFE48D9F912D11249695F6
:101AB00096959695CAE19C9F801911240E94760400
:101AC00080E00E94660080E00E94660080E00E9444
:101AD0006600809110028D9F912D11249695969508
:101AE00096959C9F801911240E94760480E00E94A4
:101AF000660080E00E94660080E00E94660080919F
:101B000011028D9F912D11249695969596959C9FE7
:101B1000801911240E94760480E00E94660080E013
:101B20000E94660080E00E946600809112028D9FF4
:101B3000D12D1124D695D695D695DC9F80191124E8
:101B40000E947604DF91CF910895CF9380E00E94A8
:101B5000660080E00E94660080E00E94660080E0EF
:101B60000E9466008EE30E94660082E20E94660088
:101B700080E00E9466008EE30E94660088E00E947A
:101B800066008EE30E94660080E00E9466008EE39D
:101B90000E9466008AE00E9466008EE30E94660052
:101BA00080E00E9466008EE30E94660084E00E944E
:101BB000660088E00E9466008EE30E94660080E076
:101BC0000E9466008EE30E94660082E20E94660028
:101BD0008AE30E94660080E00E9466008EE30E9415
:101BE00066008AE20E946600C8E080E00E9466000B
:101BF000C150D9F78EE30E9466008AE20E94660017
:101C000084E10E94660080E00E9466008EE30E94EC
:101C100066008AE20E94660080E00E9466008EE311
:101C20000E9466008AE00E9466008EE30E946600C1
:101C300080E00E9466008EE30E9466008AE10E94B6
:101C400066008EE20E94660080E00E9466008EE3DD
:101C50000E94660080E00E9466008EE30E9466009B
:101C600084E00E94660088E00E9466008EE30E9485
:101C7000660080E00E9466008EE30E94660082E2B9
:101C80000E9466008AE30E946600C5E080E00E9430
:101C90006600C150D9F7CF910895CF93DF93D82F25
:101CA000CCE080E00E946600C150D9F782E00E943B
:101CB00066008EE30E94660082E00E94660080E07B
:101CC0000E9466008EE30E94660082E20E94660027
:101CD0008EE30E946600C1E180E00E946600C15070
:101CE000D9F7D13009F065C080911902877049F4A5
:101CF0008DE00E947604C6E080E00E946600C1503C
:101D0000D9F7809119028770813049F482E10E94ED
:101D10007604C6E080E00E946600C150D9F7809149
:101D200019028770823049F484E00E947604C6E08C
:101D300080E00E946600C150D9F780911902877037
:101D4000833049F486E10E947604C6E080E00E9478
:101D50006600C150D9F7809119028770843031F440
:101D60008DE00E94760484E00E947604809119023E
:101D70008770853031F48DE00E94760486E10E9400
:101D80007604809119028770863031F482E10E94D6
:101D9000760483E00E947604809119028770873070
:101DA00009F074C082E10E94760486E10E94760404
:101DB0006DC0D23009F06AC080910F02877049F47B
:101DC0008DE00E947604C6E080E00E946600C1506B
:101DD000D9F780910F028770813049F482E10E9427
:101DE0007604C6E080E00E946600C150D9F7809179
:101DF0000F028770823049F484E00E947604C6E0C6
:101E000080E00E946600C150D9F780910F02877070
:101E1000833049F486E10E947604C6E080E00E94A7
:101E20006600C150D9F780910F028770843031F479
:101E30008DE00E94760484E00E94760480910F0277
:101E40008770853031F48DE00E94760486E10E942F
:101E5000760480910F028770863031F482E10E940F
:101E6000760483E00E94760480910F0287708730A9
:101E700069F482E10E94760486E10E94760406C03D
:101E800080E00E946600C150D9F702C0C0E1F8CFDF
:101E9000DF91CF910895EF92FF921F93CF93DF933D
:101EA00010E00F2EFDE0EF2EF2E0FF2EF02DC7E147
:101EB000D2E0812F806B0E94610082E10E9461006C
:101EC00080E00E946100111131C0809109020E94DE
:101ED00055040E94ED00809108020E9455048091F3
:101EE00007020E945504809106020E9455048091C9
:101EF00005020E94550480E00E94660080E00E9476
:101F0000660080E00E94660080E00E94660080E03B
:101F10000E94660080E00E94660080E00E946600E9
:101F200080E00E9466000E94F40050C0113019F455
:101F30000E94620389C0123009F048C084E10E9407
:101F40005504809100020E94550480E00E946600C2
:101F500088E00E94660088E00E946600809101028D
:101F60000E94550480E00E94660088E00E9466009E
:101F700088E00E946600809102020E94550480E081
:101F80000E94660080E00E94660080E00E94660079
:101F900080E00E94660080E00E94660080E00E946F
:101FA0006600809103020E94550480E00E94660052
:101FB00088E30E94660080E10E94660088E30E9438
:101FC0006600809104020E945504F3C01330E1F5CD
:101FD00080912602811105C08091210281110E9409
:101FE000980680912602811106C0809121028111FC
:101FF00002C00E941F0180912602813029F488814D
:10200000853011F00E94980680912602823031F4CA
:10201000F7018081853011F00E9498068091260298
:10202000813029F48881853011F40E94290A809139
:102030002602823009F078C1F7018081853009F0ED
:1020400073C10E94290A70C1143009F0B2C0809196
:102050002602811105C08091210281110E949806FB
:1020600080912602811106C080912102811102C057
:102070000E94E00180912602813029F4888181113B
:1020800002C00E94A10680912602813029F4888135
:10209000813011F40E94620780912602813029F478
:1020A0008881823011F40E94DA0780912602813003
:1020B00029F48881833011F40E947F0880912602E0
:1020C000813029F48881843011F40E948A0980913A
:1020D0002602813031F48881853019F481E00E9434
:1020E000680A80912602813031F48881863019F4A3
:1020F00081E00E94CC0C80912602813029F48881F5
:10210000873011F40E94A50D80912602823031F4AF
:10211000F7018081811102C00E94A10680912602F0
:10212000823031F4F7018081813011F40E9462071E
:1021300080912602823031F4F7018081823011F4DF
:102140000E94DA0780912602823031F4F701808103
:10215000833011F40E947F0880912602823031F48E
:10216000F7018081843011F40E948A09809126024F
:10217000823039F4F7018081853019F482E00E94C1
:10218000680A80912602823039F4F7018081863016
:1021900019F482E00E94CC0C80912602823009F072
:1021A000C8C0F7018081873009F0C3C00E94A50D27
:1021B000C0C0153009F0B8C080912602811105C059
:1021C0008091210281110E9498068091260281113E
:1021D00006C080912102811102C00E94A10280915B
:1021E0002602813031F480911702811102C00E94D1
:1021F000980680912602813031F480911702813057
:1022000011F40E94980680912602813031F4809169
:102210001702823011F40E949806809126028130C4
:1022200031F480911702833011F40E9436098091B5
:102230002602813031F480911702843011F40E941B
:10224000980680912602813039F4809117028530FA
:1022500019F481E00E949A0B80912602813031F4BA
:1022600080911702863011F40E9498068091260210
:10227000813039F480911702873019F481E00E948F
:102280004D0E80912602823031F480910D02811131
:1022900002C00E94980680912602823031F480911B
:1022A0000D02813011F40E9498068091260282303E
:1022B00031F480910D02823011F40E9498068091D1
:1022C0002602823031F480910D02833011F40E9495
:1022D000360980912602823031F480910D028430DB
:1022E00011F40E94980680912602823039F4809180
:1022F0000D02853019F482E00E949A0B809126022B
:10230000823031F480910D02863011F40E949806DB
:1023100080912602823079F480910D02873059F441
:1023200082E00E944D0E07C01F5F163009F0C1CD3C
:1023300002C01F5FBECDDF91CF911F91FF90EF9044
:1023400008951F920F920FB60F92112410920C0253
:102350000F900FBE0F901F9018951092700080E2A2
:102360008093B6001092B200E1EBF0E080818360D0
:102370008083E6EBF0E080818171E9F781E087BB43
:102380008093700008951F920F920FB60F92112440
:102390002F933F934F935F936F937F938F939F936D
:1023A000AF93BF93EF93FF93499B09C080912102A4
:1023B000811105C01092220281E0809325024B9B7F
:1023C0000FC08091250281110BC0809126028F5F82
:1023D0008093260280912602833010F0109226020C
:1023E00080912302813009F046C08091250281301E
:1023F00009F041C08091220281111CC080E090E070
:10240000FC01E95EFD4F2081FC01E35FFD4F20836D
:1024100001968A309105A1F7E0912202F0E08091C7
:1024200024028770E95EFD4F8083809122028F5FD6
:102430008093220280912202882369F0E091220297
:10244000F0E080912402E95EFD4F808380912202BA
:102450008F5F8093220280912202873020F080914A
:102460001D028093210280912202883010F0109288
:1024700025021092230280910C02811103C08FEA81
:102480000E94610080910C02833240F40E944B0F45
:1024900080910C028F5F80930C020BC080910C0224
:1024A000833238F080912502811103C08EEA0E94A8
:1024B00061008091050281508093050280910502A0
:1024C0008F3F61F583E6809305028091060281507B
:1024D00080930602809106028F3F01F583E6809388
:1024E00006028091070281508093070280910702C3
:1024F0008F3FA1F483E68093070280910802815008
:1025000080930802809108028F3F41F483E6809314
:1025100008028091090281508093090280910B0288
:102520008F5F80930B0280910B02837009F076C05D
:1025300080910A028F5F80930A0280910A028C3395
:1025400009F06CC010920A02809104028F5F8093A0
:102550000402809104028C3309F060C010920402DE
:10256000809103028F5F8093030280912102882370
:1025700029F08091210281508093210280910302F1
:10258000883109F04BC010920302809102028F5FE4
:102590008093020280910202803261F180910202F6
:1025A0008F3181F480910102843021F18091010208
:1025B000863001F1809101028930E1F080910102C1
:1025C0008B30C1F080910102823041F4809102028F
:1025D0008D3121F480910002837061F480910102B9
:1025E0008230E1F4809102028E31C1F480910002C8
:1025F0008370A1F481E080930202809101028F5FD9
:1026000080930102809101028D3041F481E080933A
:102610000102809100028F5F80930002FF91EF9191
:10262000BF91AF919F918F917F916F915F914F91EA
:102630003F912F910F900FBE0F901F9018958FE232
:1026400084B91AB80E94AD11789483B7817F8660EF
:1026500083BFE8E6F0E0808184608083EDE6F0E00F
:102660008081846080830E945300299A81EE94E0E7
:102670000197F1F700C0000085B18C7F85B983EC2C
:1026800099E00197F1F700C00000299A8DE80E94B7
:10269000610084E10E9461008FEA0E94610080EB8A
:1026A0000E946100D0E010E08D2F806B0E946100DD
:1026B000C12F8C2F8F700E946600CF5FC038C9F782
:1026C000DF5FD63089F790E020E031E00EC09F5FF9
:1026D0004B9B0BC080912302811107C09093240271
:1026E00030932302922F01C0922F809125028130D6
:1026F00071F3809125028111F7CF83B7816083BF89
:10270000889583B78E7F83BF922FEFCF97FB072EDD
:1027100016F4009407D077FD09D00E94BC1307FC83
:1027200005D03EF4909581959F4F089570956195E1
:102730007F4F0895A1E21A2EAA1BBB1BFD010DC0FD
:10274000AA1FBB1FEE1FFF1FA217B307E407F50761
:1027500020F0A21BB30BE40BF50B661F771F881F3D
:10276000991F1A9469F760957095809590959B01D3
:10277000AC01BD01CF010895AA1BBB1B51E107C0ED
:10278000AA1FBB1FA617B70710F0A61BB70B881F01
:10279000991F5A95A9F780959095BC01CD01089590
:0427A000F894FFCFDB
:1027A4002906010073DF0000E500010027E20000B4
:1027B40092FF0000EAFA0000E4F60000C3F0000013
:1027C40095EB00008BE6000062E90000C7FF000003
:1027D40004FB0000CAF60000E8F00000CDEB0000A6
:1027E400F9E600008DFF00000FFB0000C8F60000B2
:1027F40011F100000CEC000067E70000EF07010096
:102804007C020100DBFD0000F90701004F0201001A
:1028140000FE0000FE070100820201002BFE000002
:10282400595C0000765B0000A5580000DA570000F0
:10283400E3530000C25300008D5300007C5300009A
:10284400B3530000B7530000B8530000BE4F00005C
:10285400E54F0000E34F00001D500000F64F00005C
:10286400B04F0000714C00004E4C0000664C00005C
:102874008D4C0000064C0000084C0000504700003E
:102884008B47000025470000E44300009743000005
:10289400124400000040000035400000F63F0000F4
:0A28A400100501111E54221D03440B
:00000001FF
