:100000000C9434000C9446000C9446000C9446006A
:100010000C9446000C9485020C9446000C94460007
:100020000C9446000C94A7020C9446000C944600D5
:100030000C9446000C9446000C9446000C94460028
:100040000C9446000C9446000C9446000C94460018
:100050000C9446000C9446000C9446000C94460008
:100060000C9446000C94460011241FBECFEFD8E03C
:10007000DEBFCDBF21E0A0E0B1E001C01D92A53000
:10008000B207E1F70E94D9020C946B030C940000B4
:1000900084B18C6284B92A9A81E58CBD08952A982E
:1000A0008EBD0DB407FEFDCF2A9A089528980E94B0
:1000B0004F00289A0895289A0E944F002898089582
:1000C00080E00E945B008EE30E945B0082E20E945F
:1000D0005B008EE30E945B00089580E00E945B005D
:1000E00080E00E945B0080E00E945B008EE30E9443
:1000F0005B00089580E00E945B008AE30E945B0041
:100100008AE20E945B008EE20E945B00089580E01C
:100110000E945B008AE20E945B008AE20E945B0010
:100120008EE30E945B00089580E00E945B008EE0F9
:100130000E945B0088E00E945B008EE30E945B00EF
:10014000089580E00E945B008EE20E945B008AE2DC
:100150000E945B008AE30E945B00089580E00E9499
:100160005B008EE30E945B008AE20E945B008AE3F0
:100170000E945B00089580E00E945B0082E00E9484
:100180005B0082E00E945B008EE30E945B000895AA
:1001900080E00E945B008EE30E945B008AE20E9486
:1001A0005B008EE30E945B00089580E00E945B008C
:1001B0008EE00E945B008AE00E945B008EE30E945A
:1001C0005B00089580E00E945B0080E20E945B007B
:1001D000089580E00E945B008EE30E945B0082E253
:1001E0000E945B0080E00E945B0082E40E945B0052
:1001F00085E20E945B0082E10E945B0088E00E9431
:100200005B0084E20E945B0082E50E945B0081E269
:100210000E945B0080E00E945B0082E20E945B0023
:100220008EE30E945B00089582E00E945B008EE3F3
:100230000E945B0082E00E945B0080E00E945B0005
:100240008EE30E945B0080E00E945B008EE30E94D0
:100250005B0084E00E945B0088E00E945B0084E019
:100260000E945B008EE30E945B0080E00E945B00C6
:100270008EE30E945B008AE20E945B0080E00E94A5
:100280005B0080E00E945B008EE30E945B0080E0E8
:100290000E945B008CE20E945B008AE20E945B008D
:1002A0008AE10E945B0080E00E945B0080E00E9487
:1002B0005B008EE30E945B008AE10E945B008EE29D
:1002C0000E945B0080E00E945B008EE30E945B0066
:1002D00080E20E945B008EE30E945B0080E00E944F
:1002E0005B008EE30E945B0084E00E945B0088E07C
:1002F0000E945B008EE30E945B0080E00E945B0036
:100300008EE30E945B0084E00E945B0088E00E9414
:100310005B008EE30E945B0080E00E945B008EE346
:100320000E945B0080E00E945B008EE30E945B0005
:1003300084E00E945B0088E00E945B008EE30E94E4
:100340005B0080E00E945B008EE30E945B0082E223
:100350000E945B008AE30E945B0080E00E945B00D9
:1003600080E00E945B008EE30E945B0082E20E94BC
:100370005B008EE30E945B0080E00E945B008EE3E6
:100380000E945B0080E20E945B008EE30E945B00A3
:1003900080E00E945B0082E00E945B008EE30E948E
:1003A0005B0082E00E945B000895811103C00E94FF
:1003B00060000895813019F40E946D000895823024
:1003C00019F40E947A000895833019F40E9487007E
:1003D0000895843019F40E9494000895853019F42A
:1003E0000E94A1000895863019F40E94AE0008957D
:1003F000873019F40E94BB000895883019F40E94D8
:10040000C8000895893011F40E94D5000895DF9244
:10041000EF92FF920F931F93CF93DF9301E010E0D1
:100420000F2EFDECDF2EF02DCAE0D0E002C01F5FE2
:100430000F5F812F806B0E94560082E10E94560060
:1004400080E00E945600111131C00E9460000E949D
:100450006D000E94E2000E947A000E9487000E94C4
:1004600094000E94A1000E94AE000E94BB000E9466
:10047000C8000E94D50080E00E945B0080E00E94DE
:100480005B0080E00E945B0080E00E945B0080E0F7
:100490000E945B0080E00E945B0080E00E945B00A5
:1004A00080E00E945B000E94E90024C0113019F432
:1004B0000E9414011FC01230E9F4E0900201ED9C8B
:1004C000F12C1124F694F694F694FF0C8F2D880FDE
:1004D000880FF80E8E2D8F19F82E0E94D5018E2DC3
:1004E00090E08F199109BE010E944303862F0E945C
:1004F000D5019DCF063008F49ACFDF91CF911F919F
:100500000F91FF90EF90DF9008951F920F920FB61A
:100510000F921124109204010F900FBE0F901F90A4
:1005200018951092700080E28093B6001092B2008D
:10053000E1EBF0E0808185608083E6EBF0E0808194
:100540008171E9F781E087BB8093700008951F9265
:100550000F920FB60F9211248F93809103018F5F3A
:1005600080930301809102018F5F8093020180914B
:1005700002018C33C1F410920201809101018F5F5E
:1005800080930101809101018C3369F41092010183
:10059000809100018F5F809300018091000188317C
:1005A00011F4109200018F910F900FBE0F901F90C9
:1005B00018958FE284B91AB80E949102789483B793
:1005C000817F866083BFE8E6F0E08081846080837D
:1005D000EDE6F0E08081846080830E944800299AE3
:1005E00081EE94E00197F1F700C0000085B18C7FA7
:1005F00085B983EC99E00197F1F700C00000299AD2
:100600008DE80E94560084E10E9456008FEA0E9405
:10061000560080EB0E945600D0E010E08D2F806BDA
:100620000E945600C12F8C2F8F700E945B00CF5FFD
:10063000C038C9F7DF5FD63089F7D5E08FEA0E946E
:100640005600CD2F0E940702809104018F5F809396
:10065000040187EA91E60197F1F700C00000C1505C
:1006600089F7CFB7F894809104018A3050F08EEA70
:100670000E94560083B7816083BF889583B78E7FC1
:1006800083BFCFBFDBCF97FB072E16F4009407D0B4
:1006900077FD09D00E94570307FC05D03EF49095E2
:1006A00081959F4F0895709561957F4F0895AA1B7E
:1006B000BB1B51E107C0AA1FBB1FA617B70710F04D
:1006C000A61BB70B881F991F5A95A9F7809590957F
:0A06D000BC01CD010895F894FFCF9E
:00000001FF
