:100000000C9434000C9451000C9451000C94510049
:100010000C9451000C94BB020C9451000C945100B0
:100020000C9451000C94DD020C9451000C9451007E
:100030000C9451000C9451000C9451000C945100FC
:100040000C9451000C9451000C9451000C945100EC
:100050000C9451000C9451000C9451000C945100DC
:100060000C9451000C94510011241FBECFEFD8E026
:10007000DEBFCDBF11E0A0E0B1E0ECEDF7E002C0E3
:1000800005900D92A830B107D9F721E0A8E0B1E0C2
:1000900001C01D92AB30B207E1F70E9478030C94C7
:1000A000EC030C94000084B18C6284B92A9A81E537
:1000B0008CBD08952A988EBD0DB407FEFDCF2A9AF7
:1000C000089528980E945A00289A0895289A0E9414
:1000D0005A002898089580E00E9466008EE30E94EE
:1000E000660082E20E9466008EE30E946600089528
:1000F00080E00E94660080E00E94660080E00E942E
:1001000066008EE30E946600089580E00E9466000B
:100110008AE30E9466008AE20E9466008EE20E94E4
:100120006600089580E00E9466008AE20E946600F0
:100130008AE20E9466008EE30E946600089580E0D5
:100140000E9466008EE00E94660088E00E946600C1
:100150008EE30E946600089580E00E9466008EE2B1
:100160000E9466008AE20E9466008AE30E9466009E
:10017000089580E00E9466008EE30E9466008AE295
:100180000E9466008AE30E946600089580E00E9453
:10019000660082E00E94660082E00E9466008EE3B4
:1001A0000E946600089580E00E9466008EE30E942F
:1001B00066008AE20E9466008EE30E94660008954F
:1001C00080E00E9466008EE00E9466008AE00E9445
:1001D00066008EE30E946600089580E00E9466003B
:1001E00080E20E946600089580E00E9466008EE32F
:1001F0000E94660082E20E94660080E00E94660023
:1002000082E40E94660085E20E94660082E10E940C
:10021000660088E00E94660084E20E94660082E533
:100220000E94660081E20E94660080E00E946600F3
:1002300082E20E9466008EE30E946600089582E0DA
:100240000E9466008EE30E94660082E00E946600C3
:1002500080E00E9466008EE30E94660080E00E94BB
:1002600066008EE30E94660084E00E94660088E0DB
:100270000E94660084E00E9466008EE30E94660091
:1002800080E00E9466008EE30E9466008AE20E947F
:10029000660080E00E94660080E00E9466008EE3B7
:1002A0000E94660080E00E9466008CE20E94660068
:1002B0008AE20E9466008AE10E94660080E00E9455
:1002C000660080E00E9466008EE30E9466008AE17C
:1002D0000E9466008EE20E94660080E00E94660036
:1002E0008EE30E94660080E20E9466008EE30E9418
:1002F000660080E00E9466008EE30E94660084E053
:100300000E94660088E00E9466008EE30E946600FC
:1003100080E00E9466008EE30E94660084E00E94F6
:10032000660088E00E9466008EE30E94660080E01E
:100330000E9466008EE30E94660080E00E946600D4
:100340008EE30E94660084E00E94660088E00E94BE
:1003500066008EE30E94660080E00E9466008EE3E5
:100360000E94660082E20E9466008AE30E946600A4
:1003700080E00E94660080E00E9466008EE30E949A
:10038000660082E20E9466008EE30E94660080E0C2
:100390000E9466008EE30E94660080E20E94660072
:1003A0008EE30E94660080E00E94660082E00E9468
:1003B00066008EE30E94660082E00E946600089557
:1003C000811103C00E946B000895813019F40E94CE
:1003D00078000895823019F40E94850008958330D2
:1003E00019F40E9492000895843019F40E949F002D
:1003F0000895853019F40E94AC000895863019F4F0
:100400000E94B9000895873019F40E94C60008952B
:10041000883019F40E94D3000895893011F40E94A5
:10042000E0000895CF93CDEC8C9FC12D1124C6958B
:10043000C695C695CC0F9C2F990F990FC90F982F71
:100440009C1BC92F282F30E0C9018C1B91096AE041
:1004500070E00E94C403862F0E94E0018C2F0E944E
:10046000E001CF910895CF93DF93D1E0C0E002C0C7
:10047000CF5FDF5F8C2F806B0E94610082E10E9462
:10048000610080E00E946100C11131C080910601CD
:100490000E9412020E94ED00809105010E9412024A
:1004A000809104010E941202809103010E941202B5
:1004B000809102010E94120280E00E94660080E0AA
:1004C0000E94660080E00E94660080E00E94660054
:1004D00080E00E94660080E00E94660080E00E944A
:1004E000660080E00E9466000E94F4003EC0C130B9
:1004F00019F40E941F0139C0C230B9F58091000182
:100500000E94120280E00E94660082E20E94660061
:1005100080E00E946600809101010E94120280E04A
:100520000E94660082E20E94660080E00E946600EF
:10053000809108010E94120280E00E94660080E023
:100540000E94660080E00E94660080E00E946600D3
:1005500080E00E94660080E00E94660080E00E94C9
:10056000660080E00E94660083CFD63008F480CF1A
:10057000DF91CF9108951F920F920FB60F92112421
:1005800010920A010F900FBE0F901F9018951092B5
:10059000700080E28093B6001092B200E1EBF0E0D0
:1005A000808183608083E6EBF0E080818171E9F7F0
:1005B00081E087BB8093700008951F920F920FB661
:1005C0000F9211242F933F934F935F936F937F93D9
:1005D0008F939F93AF93BF93EF93FF9380910A0103
:1005E000811103C08FEA0E94610080910A01833269
:1005F00040F40E94330280910A018F5F80930A01C8
:1006000007C080910A01833218F08EEA0E946100CF
:100610008091020181508093020180910201811139
:100620002CC083E680930201809103018150809366
:10063000030180910301811120C083E680930301AF
:100640008091040181508093040180910401811103
:1006500014C083E68093040180910501815080934A
:10066000050180910501811108C083E68093050191
:1006700080910601815080930601809109018F5F6E
:100680008093090180910901837009F58091080127
:100690008F5F80930801809108018C33C1F4109220
:1006A0000801809101018F5F809301018091010118
:1006B0008C3369F410920101809100018F5F809367
:1006C000000180910001883111F410920001FF9126
:1006D000EF91BF91AF919F918F917F916F915F91BA
:1006E0004F913F912F910F900FBE0F901F90189533
:1006F0008FE284B91AB80E94C702789483B7817FC9
:10070000866083BFE8E6F0E0808184608083EDE668
:10071000F0E08081846080830E945300299A81EEFA
:1007200094E00197F1F700C0000085B18C7F85B996
:1007300083EC99E00197F1F700C00000299A8DE859
:100740000E94610084E10E9461008FEA0E946100C2
:1007500080EB0E946100D0E010E08D2F806B0E9442
:100760006100C12F8C2F8F700E946600CF5FC03850
:10077000C9F7DF5FD63089F783B7816083BF88957B
:1007800083B78E7F83BFF8CF97FB072E16F40094B4
:1007900007D077FD09D00E94D80307FC05D03EF4AE
:1007A000909581959F4F0895709561957F4F08951D
:1007B000AA1BBB1B51E107C0AA1FBB1FA617B70787
:1007C00010F0A61BB70B881F991F5A95A9F78095A3
:0C07D0009095BC01CD010895F894FFCF76
:0807DC000D2160130F0744001A
:00000001FF
