S01100006C69666574696D65722E7372656352
S11300000C9434000C9451000C9451000C94510045
S11300100C9451000C9499150C9451000C945100BB
S11300200C9451000C94BB150C9451000C94510089
S11300300C9451000C9451000C9451000C945100F8
S11300400C9451000C9451000C9451000C945100E8
S11300500C9451000C9451000C9451000C945100D8
S11300600C9451000C94510011241FBECFEFD8E022
S1130070DEBFCDBF12E0A0E0B1E0E6E9FFE202C0DE
S113008005900D92AA30B107D9F722E0AAE0B2E0B8
S113009001C01D92A832B207E1F70E9418170C9410
S11300A0C9170C94000084B18C6284B92A9A81E542
S11300B08CBD08952A988EBD0DB407FEFDCF2A9AF3
S11300C0089528980E945A00289A0895289A0E9410
S11300D05A002898089580E00E9466008EE30E94EA
S11300E0660082E20E9466008EE30E946600089524
S11300F080E00E94660080E00E94660080E00E942A
S113010066008EE30E946600089580E00E94660007
S11301108AE30E9466008AE20E9466008EE20E94E0
S11301206600089580E00E9466008AE20E946600EC
S11301308AE20E9466008EE30E946600089580E0D1
S11301400E9466008EE00E94660088E00E946600BD
S11301508EE30E946600089580E00E9466008EE2AD
S11301600E9466008AE20E9466008AE30E9466009A
S1130170089580E00E9466008EE30E9466008AE291
S11301800E9466008AE30E946600089580E00E944F
S1130190660082E00E94660082E00E9466008EE3B0
S11301A00E946600089580E00E9466008EE30E942B
S11301B066008AE20E9466008EE30E94660008954B
S11301C080E00E9466008EE00E9466008AE00E9441
S11301D066008EE30E946600089580E00E94660037
S11301E080E20E946600089580E00E9466008EE32B
S11301F00E94660082E20E94660080E00E9466001F
S113020082E40E94660085E20E94660082E10E9408
S1130210660088E00E94660084E20E94660082E52F
S11302200E94660081E20E94660080E00E946600EF
S113023082E20E9466008EE30E946600089580E0D8
S11302400E94660080E00E94660080E00E946600D2
S11302508EEF0E9466008EEF0E9466008EEF0E9471
S113026066008EE00E9466008EE00E9466008EE0CA
S11302700E9466008EEF0E9466008EEF0E94660068
S11302808EEF0E946600089580E00E94660080E080
S11302900E94660080E00E94660080E00E94660082
S11302A080E00E94660080E00E94660080E00E9478
S11302B0660080E00E94660080E00E9466008EEF87
S11302C00E9466008EEF0E9466008EEF0E94660018
S11302D0089580E00E94660080E00E94660080E04D
S11302E00E9466008EE80E9466008EE80E94660006
S11302F08EE80E9466008EE80E9466008EE80E94E6
S113030066008EE80E9466008EEF0E9466008EEF03
S11303100E9466008EEF0E946600089580E00E94AD
S1130320660080E00E94660080E00E9466008EE81D
S11303300E9466008EE80E9466008EE80E946600B5
S11303408EE80E9466008EE80E9466008EE80E9495
S113035066008EEF0E9466008EEF0E9466008EEFAC
S11303600E946600089580E00E94660080E00E947A
S1130370660080E00E9466008EEF0E9466008EEFA9
S11303800E9466008EEF0E94660080E80E9466006C
S113039080E80E94660080E80E9466008EEF0E945A
S11303A066008EEF0E9466008EEF0E94660008953C
S11303B080E00E94660080E00E94660080E00E9467
S11303C066008EEF0E9466008EEF0E9466008EEF3C
S11303D00E9466008EE80E9466008EE80E94660015
S11303E08EE80E9466008EE80E9466008EE80E94F5
S11303F066008EE80E946600089580E00E94660010
S113040080E00E94660080E00E9466008EEF0E94F9
S113041066008EEF0E9466008EEF0E9466008EE8F2
S11304200E9466008EE80E9466008EE80E946600C4
S11304308EE80E9466008EE80E9466008EE80E94A4
S11304406600089580E00E94660080E00E946600D5
S113045080E00E9466008EE00E9466008EE00E94AA
S113046066008EE00E9466008EE00E9466008EE0C8
S11304700E9466008EE00E9466008EEF0E94660075
S11304808EEF0E9466008EEF0E946600089580E061
S11304900E94660080E00E94660080E00E94660080
S11304A08EEF0E9466008EEF0E9466008EEF0E941F
S11304B066008EE80E9466008EE80E9466008EE860
S11304C00E9466008EEF0E9466008EEF0E94660016
S11304D08EEF0E946600089580E00E94660080E02E
S11304E00E94660080E00E9466008EEF0E94660013
S11304F08EEF0E9466008EEF0E9466008EE80E94D6
S113050066008EE80E9466008EE80E9466008EEF08
S11305100E9466008EEF0E9466008EEF0E946600C5
S1130520089580E00E94660080E00E94660080E0FA
S11305300E9466008FEF0E9466008FEF0E946600A3
S11305408FEF0E94660080EE0E94660080EE0E949B
S1130550660080EE0E9466008FEF0E9466008FEFB7
S11305600E9466008FEF0E946600089580E00E945A
S1130570660080E00E94660080E00E94660080E0E1
S11305800E94660080E00E94660080E00E9466008F
S113059080E00E94660080E00E94660080E00E9485
S11305A066008FEF0E9466008FEF0E9466008FEF57
S11305B00E946600089580E00E94660080E00E9428
S11305C0660080E00E9466008FEF0E9466008FEF55
S11305D00E9466008FEF0E94660083EE0E94660010
S11305E083EE0E94660083EE0E94660083EE0E9402
S11305F0660083EE0E94660083EE0E946600089502
S113060080E00E94660080E00E94660080E00E9414
S1130610660083EE0E94660083EE0E94660083EE0D
S11306200E94660083EE0E94660083EE0E946600CC
S113063083EE0E9466008FEF0E9466008FEF0E9497
S113064066008FEF0E946600089580E00E946600B5
S113065080E00E94660080E00E94660083E00E94C1
S1130660660083E00E94660083E00E94660083E0E7
S11306700E94660083E00E94660083E00E94660098
S11306808FEF0E9466008FEF0E9466008FEF0E943A
S11306906600089580E00E94660080E00E94660083
S11306A080E00E94660083EE0E94660083EE0E9452
S11306B0660083EE0E94660083EE0E94660083EE6D
S11306C00E94660083EE0E9466008FEF0E9466001F
S11306D08FEF0E9466008FEF0E946600089580E00D
S11306E00E94660080E00E94660080E00E9466002E
S11306F08FEF0E9466008FEF0E9466008FEF0E94CA
S1130700660083EE0E94660083EE0E94660083EE1C
S11307100E9466008FEF0E9466008FEF0E946600C1
S11307208FEF0E946600089580E00E94660080E0DA
S11307300E94660080E00E94660080E00E946600DD
S113074080E00E94660080E00E94660080E00E94D3
S1130750660080E00E94660080E00E9466008FEFE1
S11307600E9466008FEF0E9466008FEF0E94660071
S1130770089580E00E94660080E00E94660080E0A8
S11307800E9466008FEF0E9466008FEF0E94660051
S11307908FEF0E94660083EE0E94660083EE0E9443
S11307A0660083EE0E9466008FEF0E9466008FEF62
S11307B00E9466008FEF0E946600089580E00E9408
S11307C0660080E00E94660080E00E94660083E08C
S11307D00E94660083E00E94660083E00E94660037
S11307E083E00E94660083E00E94660083E00E942A
S11307F066008FEF0E9466008FEF0E9466008FEF05
S11308000E946600089580E00E94660080E00E94D5
S1130810660080E00E9466008EE30E94660084E029
S11308200E94660088E00E9466008EE30E946600D3
S113083080E00E9466008EE30E9466008AE20E94C5
S1130840660080E00E9466008EE30E94660080E1FC
S11308500E94660088E00E94660080E10E946600B3
S11308608EE30E94660080E00E94660080E00E94A1
S1130870660080E00E9466008EE30E94660082E2C9
S11308800E9466008EE30E94660080E00E9466007B
S11308908EE30E9466008AE10E9466008EE20E9456
S11308A0660080E00E9466008EE30E94660082E299
S11308B00E9466008CE10E94660080E00E9466004F
S11308C08EE30E9466008AE20E94660080E00E9435
S11308D066008EE30E9466008AE10E9466008EE252
S11308E00E94660080E00E9466008CE20E9466001E
S11308F08AE20E9466008AE10E94660080E00E940B
S1130900660080E00E94660080E00E9466008EE33C
S11309100E9466008AE00E9466008AE00E946600E7
S113092080E00E9466008EE30E9466008AE10E94D5
S113093066008EE20E94660080E00E9466008EE3FC
S11309400E94660082E20E9466008EE30E946600B6
S113095080E00E9466008EE30E94660084E00E94AC
S1130960660088E00E94660084E00E9466008EE3D0
S11309700E94660080E00E94660080E00E9466009B
S113098080E00E946600089580E00E94660080E096
S11309900E94660080E00E94660080E00E9466007B
S11309A080E00E94660080E00E9466008EE30E9460
S11309B0660084E00E94660088E00E94660084E08D
S11309C00E9466008EE30E94660080E00E9466003A
S11309D08EE30E9466008AE00E9466008EE30E9415
S11309E0660080E00E9466008EE30E94660082E258
S11309F00E94660080E00E9466008EE30E9466000A
S1130A0088E00E9466008EE30E94660080E00E94F7
S1130A1066008EE30E94660080E00E9466008EE31A
S1130A200E94660084E00E94660088E00E946600DE
S1130A308EE30E94660080E00E9466008EE30E94BE
S1130A4066008AE20E94660080E00E94660080E000
S1130A500E94660080E00E94660080E00E946600BA
S1130A6080E00E9466008EE30E9466008AE20E9493
S1130A70660080E00E9466008EE30E94660084E0C7
S1130A800E94660088E00E94660084E00E9466007E
S1130A908EE30E94660080E00E9466008EE30E945E
S1130AA066008AE00E9466008EE00E94660080E094
S1130AB00E9466008EE30E94660080E00E94660049
S1130AC08EE30E9466008AE10E9466008EE20E9424
S1130AD0660080E00E9466008EE30E9466008AE25F
S1130AE00E94660080E00E94660080E00E9466002A
S1130AF080E00E94660080E00E94660080E00E9420
S1130B00660080E00E946600089580E00E9466000E
S1130B1080E00E94660080E00E94660080E00E94FF
S1130B20660080E00E94660080E00E94660080E02B
S1130B300E94660080E00E9466008EE30E946600C8
S1130B4088E00E9466008EE30E94660080E00E94B6
S1130B5066008EE30E94660080E00E9466008EE3D9
S1130B600E94660082E20E9466008AE30E94660098
S1130B7080E00E9466008EE30E94660088E00E9486
S1130B8066008EE30E94660080E00E94660080E0BA
S1130B900E94660080E00E94660080E00E94660079
S1130BA080E00E9466008EE30E94660082E20E945A
S1130BB0660080E00E9466008EE30E94660082E286
S1130BC00E9466008EE30E94660080E00E94660038
S1130BD08EE30E94660084E00E94660088E00E9422
S1130BE0660084E00E9466008EE30E94660080E056
S1130BF00E9466008EE30E94660084E00E94660004
S1130C0088E00E94660084E00E9466008EE30E94F1
S1130C10660080E00E9466008EE30E9466008AE01F
S1130C200E9466008EE30E94660080E00E946600D7
S1130C308EE30E94660084E00E94660088E00E94C1
S1130C4066008EE30E94660080E00E9466008EE3E8
S1130C500E94660082E20E9466008CE10E946600A7
S1130C6080E00E94660080E00E94660080E00E94AE
S1130C70660080E00E94660080E00E94660080E0DA
S1130C800E94660080E00E946600089582E00E944F
S1130C9066008EE30E94660082E00E94660080E0A7
S1130CA00E9466008EE30E94660080E00E94660057
S1130CB08EE30E94660084E00E94660088E00E9441
S1130CC0660084E00E9466008EE30E94660080E075
S1130CD00E9466008EE30E9466008AE20E9466001B
S1130CE080E00E94660080E00E9466008EE30E941D
S1130CF0660080E00E9466008CE20E9466008AE240
S1130D000E9466008AE10E94660080E00E946600FC
S1130D1080E00E9466008EE30E9466008AE10E94E1
S1130D2066008EE20E94660080E00E9466008EE308
S1130D300E94660080E20E9466008EE30E946600C4
S1130D4080E00E9466008EE30E94660084E00E94B8
S1130D50660088E00E9466008EE30E94660080E0E0
S1130D600E9466008EE30E94660084E00E94660092
S1130D7088E00E9466008EE30E94660080E00E9484
S1130D8066008EE30E94660080E00E9466008EE3A7
S1130D900E94660084E00E94660088E00E9466006B
S1130DA08EE30E94660080E00E9466008EE30E944B
S1130DB0660082E20E9466008AE30E94660080E088
S1130DC00E94660080E00E9466008EE30E94660036
S1130DD082E20E9466008EE30E94660080E00E9428
S1130DE066008EE30E94660080E20E9466008EE345
S1130DF00E94660080E00E94660082E00E94660015
S1130E008EE30E94660082E00E94660008958111CC
S1130E1003C00E946B000895813019F40E94780089
S1130E200895823019F40E9485000895833019F4DE
S1130E300E9492000895843019F40E949F0008953E
S1130E40853019F40E94AC000895863019F40E948C
S1130E50B9000895873019F40E94C60008958830B7
S1130E6019F40E94D3000895893011F40E94E0001F
S1130E700895811103C00E941F010895813019F45F
S1130E800E9444010895823019F40E946901089572
S1130E90833019F40E948E010895843019F40E945D
S1130EA0B3010895853019F40E94D801089586305D
S1130EB019F40E94FD010895873019F40E9422025A
S1130EC00895883019F40E9447020895893011F476
S1130ED00E946C020895811103C00E94910208953A
S1130EE0813019F40E94B6020895823019F40E94E8
S1130EF0DB020895833019F40E94000308958430BE
S1130F0019F40E9425030895853019F40E944A03B8
S1130F100895863019F40E946F030895873019F4F8
S1130F200E9494030895883019F40E94B903089527
S1130F30893011F40E94DE030895CF93CDEC8C9F89
S1130F40C12D1124C695C695C695CC0F9C2F990F1B
S1130F50990FC90F982F9C1BC92F282F30E0C90166
S1130F608C1B91096AE070E00E947F17862F0E9413
S1130F7007078C2F0E940707CF910895CF93CDECDC
S1130F808C9FC12D1124C695C695C695CC0F9C2F58
S1130F90990F990FC90F982F9C1BC92F282F30E048
S1130FA0C9018C1B91096AE070E00E947F17862FAB
S1130FB00E9439078C2F0E943907CF910895CF934F
S1130FC0CDEC8C9FC12D1124C695C695C695CC0F2A
S1130FD09C2F990F990FC90F982F9C1BC92F282F4D
S1130FE030E0C9018C1B91096AE070E00E947F1710
S1130FF0862F0E946B078C2F0E946B07CF91089558
S1131000811113C08EE30E9466008AE00E9466008C
S11310108EE30E94660080E00E94660080E00E94E9
S1131020660080E00E9466000895813099F48EE3A2
S11310300E9466008AE20E94660084E10E946600C3
S113104080E00E94660080E00E94660080E00E94CA
S113105066000895823099F48EE30E94660082E26D
S11310600E94660080E00E94660080E00E946600A4
S113107080E00E94660080E00E946600089583304C
S113108099F48EE30E94660082E20E9466008CE17D
S11310900E94660080E00E94660080E00E94660074
S11310A080E00E9466000895843099F48EE30E94E3
S11310B066008AE20E94660080E00E94660080E08A
S11310C00E94660080E00E94660080E00E94660044
S11310D00895853099F48EE30E9466008AE00E94A8
S11310E066008AE00E94660080E00E94660080E05C
S11310F00E94660080E00E9466000895863099F49C
S11311008EE30E94660082E20E9466008AE30E94E7
S1131110660080E00E94660080E00E94660080E035
S11311200E9466000895873099F48EE30E94660059
S113113088E00E9466008EE30E94660080E00E94C0
S1131140660080E00E94660080E00E9466000895C8
S1131150883099F48EE30E94660080E00E94660065
S113116080E00E94660080E00E94660080E00E94A9
S1131170660080E00E9466000895893099F480E357
S11311800E94660080E20E9466008EE30E94660070
S113119080E00E94660080E00E94660080E00E9479
S11311A0660008958A3099F48EE30E9466008CE10B
S11311B00E94660086E30E94660080E00E9466004A
S11311C080E00E94660080E00E94660008958B30F3
S11311D099F48EE30E94660080E20E94660080E239
S11311E00E94660080E00E94660080E00E94660023
S11311F080E00E94660008958C3099F48EE30E948A
S1131200660084E00E94660088E00E94660084E034
S11312100E9466008EE30E94660080E00E946600E1
S113122008958D3099F48EE30E94660084E00E9454
S1131230660088E00E9466008EE30E94660080E0FB
S11312400E94660080E00E94660008958E3099F442
S11312508EE30E94660082E20E9466008EE30E9492
S1131260660080E00E94660080E00E94660080E0E4
S11312700E94660008958F3099F48EE30E94660000
S11312808AE00E9466008EE00E94660080E00E9470
S1131290660080E00E94660080E00E946600089577
S11312A0803199F48EE30E94660082E70E94660012
S11312B086E20E9466008CE30E94660080E00E9441
S11312C0660080E00E9466000895813199F48EE3FF
S11312D00E9466008AE10E9466008EE20E94660017
S11312E080E00E94660080E00E94660080E00E9428
S11312F066000895823199F48CE20E9466008AE2C5
S11313000E9466008AE10E94660080E00E946600F6
S113131080E00E94660080E00E94660008958331A8
S113132099F482E00E9466008EE30E94660082E0E7
S11313300E94660080E00E94660080E00E946600D1
S113134080E00E9466000895843199F48EE30E943F
S1131350660080E20E9466008EE30E94660080E0E0
S11313600E94660080E00E94660080E00E946600A1
S11313700895853199F48EE10E94660080E20E940E
S113138066008EE10E94660080E00E94660080E0B4
S11313900E94660080E00E9466000895863199F4F8
S11313A08EE30E94660080E10E94660088E00E944D
S11313B0660080E10E9466008EE30E94660080E081
S11313C00E9466000895873199F482E20E946600C3
S11313D084E10E94660088E00E94660084E10E9425
S11313E0660082E20E94660080E00E946600089522
S11313F0883199F48EE00E94660088E30E946600BA
S11314008EE00E94660080E00E94660080E00E94F8
S1131410660080E00E9466000895893191F482E3B9
S11314200E9466008AE20E94660086E20E946600CC
S113143080E00E94660080E00E94660080E00E94D6
S113144066000895CF93C0E480E00E946600C15016
S1131450D9F7CF9108958CE20E9466008AE20E9437
S113146066008AE10E94660080E00E94660082E0D5
S11314700E9466008EE30E94660082E00E9466007D
S113148080E00E9466008EE30E94660082E20E9471
S113149066008EE30E94660080E00E9466008EE390
S11314A00E9466008AE00E9466008EE00E94660048
S11314B080E00E94660080E00E94660080E00E9456
S11314C0660080E00E9466008EE30E9466008AE067
S11314D00E9466008EE30E94660080E00E9466001F
S11314E08EE30E94660084E00E94660088E00E9409
S11314F066008EE30E94660080E00E9466008EE330
S11315000E94660082E20E9466008CE10E946600EE
S113151080E00E94660080E00E94660080E00E94F5
S1131520660080E00E9466008EE30E94660084E00C
S11315300E94660088E00E94660084E00E946600C3
S11315408EE30E94660080E00E9466008EE30E94A3
S113155066008AE20E94660080E00E9466008EE3D4
S11315600E94660082E20E9466008CE10E9466008E
S113157080E00E9466008EE30E94660080E00E9484
S1131580660082E00E9466008EE30E94660082E0AC
S11315900E94660080E00E9466008EE30E9466005E
S11315A08AE00E9466008EE30E94660080E00E944A
S11315B0660082E00E9466008EE30E94660082E07C
S11315C00E94660080E00E9466008EE30E9466002E
S11315D08AE20E9466000895CF93CDE080E00E94E5
S11315E06600C150D9F782E00E9466008EE30E9433
S11315F0660082E00E94660080E00E9466008EE33E
S11316000E9466008AE20E94660080E00E946600F2
S11316108EE30E94660084E00E94660088E00E94D7
S113162066008EE30E94660080E00E9466008EE3FE
S11316300E94660082E20E9466008CE10E946600BD
S113164080E00E94660080E00E94660080E00E94C4
S1131650660080E00E94660080E00E94660080E0F0
S11316600E9466008CE20E9466008AE20E94660084
S11316708AE10E94660080E00E9466008EE30E9478
S113168066008AE20E94660080E00E9466008EE3A3
S11316900E94660080E20E94660080E20E9466006A
S11316A080E00E9466008EE30E9466008AE00E9449
S11316B066008AE00E946600C0E180E00E94660045
S11316C0C150D9F7CF910895CF9380E00E9466006E
S11316D08EE30E94660082E20E94660080E00E941F
S11316E066008EE30E94660080E20E94660080E24B
S11316F00E94660080E00E9466008EE30E946600FD
S113170080E00E9466008EE30E94660084E00E94EE
S1131710660088E00E94660084E00E9466008EE312
S11317200E94660080E00E9466008EE30E946600CC
S11317308AE20E94660084E10E946600C7E080E0BD
S11317400E946600C150D9F78EE30E94660084E0CF
S11317500E94660088E00E94660084E00E946600A1
S11317608EE30E94660080E00E9466008EE30E9481
S113177066008AE00E9466008EE30E94660080E0B4
S11317800E9466008EE30E9466008AE10E94660061
S11317908EE20E94660080E00E9466008CE20E9455
S11317A066008AE20E9466008AE10E946600C7E041
S11317B080E00E946600C150D9F78EE30E94660063
S11317C088E00E9466008EE30E94660080E00E942A
S11317D066008EE30E94660080E00E9466008EE34D
S11317E00E94660080E20E94660080E20E94660019
S11317F080E00E9466008EE30E94660080E20E9400
S1131800660080E20E94660080E00E946600CF913C
S11318100895CF9380E00E94660080E00E946600F5
S113182080E00E94660080E00E9466008EE30E94D1
S113183066008AE20E94660084E10E94660080E0FD
S11318400E9466008EE30E9466008AE20E9466009F
S113185080E00E9466008EE30E94660084E00E949D
S1131860660088E00E9466008EE30E94660080E0C5
S11318700E9466008EE30E9466008AE20E9466006F
S113188080E00E9466008EE30E9466008AE00E9467
S113189066008AE00E94660080E00E9466008EE393
S11318A00E94660080E00E94660082E00E9466005A
S11318B08EE30E94660082E00E946600C6E080E03B
S11318C00E946600C150D9F78EE30E94660084E04E
S11318D00E94660088E00E9466008EE30E94660013
S11318E080E00E9466008EE30E9466008AE20E9405
S11318F0660080E00E9466008EE30E9466008AE033
S11319000E9466008EE30E94660080E00E946600EA
S11319108EE30E9466008AE10E9466008EE20E94C5
S1131920660080E00E9466008EE30E9466008AE200
S11319300E94660080E00E9466008CE20E946600BD
S11319408AE20E9466008AE10E94660080E00E94AA
S1131950660082E00E9466008EE30E94660082E0D8
S11319600E94660080E00E94660080E00E9466009B
S113197080E00E94660080E00E946600CF91089596
S1131980CF93C3E180E00E946600C150D9F78EE393
S11319900E9466008AE00E9466008EE00E94660053
S11319A080E00E9466008EE30E9466008AE20E9444
S11319B0660080E00E9466008EE30E9466008AE171
S11319C00E9466008EE20E94660080E00E9466002B
S11319D08CE20E9466008AE20E9466008AE10E940C
S11319E0660080E00E9466008EE30E94660082E248
S11319F00E9466008EE30E94660080E00E946600FA
S1131A008EE30E94660084E00E94660088E00E94E3
S1131A1066008EE30E946600C6E180E00E946600D4
S1131A20C150D9F7CF910895CF93C6E080E00E94CA
S1131A306600C150D9F78EE30E9466008AE00E94D6
S1131A4066008AE00E94660080E00E9466008EE3E1
S1131A500E94660080E00E94660082E20E946600A6
S1131A6084E10E94660088E00E94660084E10E948E
S1131A70660082E20E946600CAE080E00E9466007E
S1131A80C150D9F78CE20E9466008AE20E94660087
S1131A908AE10E94660080E00E9466008EE30E9454
S1131AA0660082E20E9466008EE30E94660080E087
S1131AB00E9466008EE30E94660084E00E94660035
S1131AC088E00E94660084E00E9466008EE30E9423
S1131AD0660080E00E9466008EE30E9466008AE24F
S1131AE00E94660080E00E94660082E00E94660018
S1131AF08EE30E94660082E00E94660080E00E94FD
S1131B0066008EE30E94660088E00E9466008EE311
S1131B100E94660080E00E9466008EE30E946600D8
S1131B2080E00E9466008EE30E94660084E00E94CA
S1131B30660088E00E9466008EE30E94660080E0F2
S1131B400E9466008EE30E94660082E20E946600A4
S1131B508AE30E946600C5E080E00E946600C150EE
S1131B60D9F7CF910895CF93C3E180E00E94660036
S1131B70C150D9F78EE30E94660082E20E9466009B
S1131B808AE30E94660080E00E9466008EE30E9461
S1131B90660082E20E9466008EE30E946600C6E050
S1131BA080E00E946600C150D9F782E00E9466007E
S1131BB08EE30E94660082E00E94660080E00E943C
S1131BC066008EE30E94660082E20E9466008EE355
S1131BD00E946600C8E180E00E946600C150D9F707
S1131BE0CF9108954F925F926F927F928F929F92BE
S1131BF0AF92BF92CF92DF92EF92FF921F93CF9357
S1131C00DF93C82F80E00E94660088E00E9466008F
S1131C108CE10E94660088E00E94660080E00E94D9
S1131C20660080E00E94660080E00E94660083E215
S1131C300E949D070E94ED00C13031F410911902F9
S1131C401F7180911A0208C0C23009F04FC0109170
S1131C500F021F71809110028F3708F449C0812E42
S1131C60912C8F73482E512C612C712CE401CC0FD4
S1131C70DD1FCC0FDD1FC058DE4F688179818A815A
S1131C809B810F2EFAE08F2E912CA12CB12CF02DDC
S1131C90A50194010E949317CA01B901640D751D31
S1131CA0861D971D0F2EF4E6CF2ED12CE12CF12C9E
S1131CB0F02DA70196010E949317822F0E949D0781
S1131CC0688179818A819B81A50194010E9493177F
S1131CD0CA01B901640D751D861D971DA7019601E2
S1131CE00E949317862F0E949D0747C080E010E052
S1131CF0C12FD0E08F73882E912CA12CB12CCC0F46
S1131D00DD1FCC0FDD1FC058DE4F688179818A81C9
S1131D109B810F2EFAE04F2E512C612C712CF02D4B
S1131D20A30192010E949317CA01B90168197909A4
S1131D308A099B090F2EF4E6CF2ED12CE12CF12C2D
S1131D40F02DA70196010E949317822F0E949D07F0
S1131D50688179818A819B81A30192010E949317F2
S1131D60CA01B901681979098A099B09A701960171
S1131D700E949317862F0E949D07E12FF0E0EE0F3B
S1131D80FF1FEE0FFF1FE058FE4F608171818281BB
S1131D9093812AE030E040E050E00E949317862FC0
S1131DA00E94070780E00E94660080E00E946600AF
S1131DB080E00E94660080E00E94660080E00E944D
S1131DC0660080E00E9466008EE30E94660082E264
S1131DD00E94660080E00E94660080E00E94660027
S1131DE082E00E94660085E00E94660082E00E9414
S1131DF0660080E00E9466008DE00E94000880E09A
S1131E000E94660082E20E9466008EE30E946600E1
S1131E1080E00E94660080E00E94660080E00E94EC
S1131E20660080E00E946600DF91CF911F91FF90D1
S1131E30EF90DF90CF90BF90AF909F908F907F9066
S1131E406F905F904F9008954F925F926F927F9240
S1131E508F929F92AF92BF92CF92DF92EF92FF92B6
S1131E601F93CF93DF93C82F80E00E94660088E021
S1131E700E94660088E00E94660088E00E94660076
S1131E8080E00E94660080E00E9466008EE30E946B
S1131E9066008BE00E949D070E94ED00C13031F482
S1131EA0109119021F7180911B0208C0C23009F001
S1131EB04FC010910F021F71809111028F3708F4E7
S1131EC049C0812E912C8F73482E512C612C712C7A
S1131ED0E401CC0FDD1FCC0FDD1FC050DF4F688144
S1131EE079818A819B810F2EFAE08F2E912CA12C6F
S1131EF0B12CF02DA50194010E949317CA01B901D8
S1131F00640D751D861D971D0F2EF4E6CF2ED12C62
S1131F10E12CF12CF02DA70196010E949317822F3A
S1131F200E949D07688179818A819B81A501940122
S1131F300E949317CA01B901640D751D861D971D72
S1131F40A70196010E949317862F0E949D0747C000
S1131F5080E010E0C12FD0E08F73882E912CA12C4B
S1131F60B12CCC0FDD1FCC0FDD1FC050DF4F6881BB
S1131F7079818A819B810F2EFAE04F2E512C612C9E
S1131F80712CF02DA30192010E949317CA01B9018B
S1131F90681979098A099B090F2EF4E6CF2ED12CF2
S1131FA0E12CF12CF02DA70196010E949317822FAA
S1131FB00E949D07688179818A819B81A301920196
S1131FC00E949317CA01B901681979098A099B0902
S1131FD0A70196010E949317862F0E949D07E12F67
S1131FE0F0E0EE0FFF1FEE0FFF1FE050FF4F608188
S1131FF07181828193812AE030E040E050E00E94C8
S11320009317862F0E94070780E00E94660080E0F5
S11320100E94660080E00E94660080E00E946600E4
S113202080E00E94660080E00E9466008EE30E94C9
S1132030660082E20E94660080E00E94660080E002
S11320400E94660082E00E94660085E00E946600AD
S113205082E00E94660080E00E94660084E00E94A4
S1132060000880E00E94660082E20E9466008EE31F
S11320700E94660080E00E94660080E00E94660084
S113208080E00E94660080E00E946600DF91CF91AC
S11320901F91FF90EF90DF90CF90BF90AF909F90F3
S11320A08F907F906F905F904F900895CF93DF93C0
S11320B0D82FC5E080E00E946600C150D9F78EE3B6
S11320C00E94660082E20E9466008AE30E94660023
S11320D080E00E9466008EE30E9466008AE20E940D
S11320E0660080E00E94660082E00E9466008EE343
S11320F00E94660082E00E946600C0E180E00E94C7
S11321006600C150D9F7D13009F052C0809119024C
S1132110DFE48D9F912D1124969596959695CAE1AD
S11321209C9F801911240E94000880E00E94660090
S113213080E00E94660080E00E94660080911A029E
S11321408D9F912D11249695969596959C9F801917
S113215011240E94000880E00E94660080E00E9432
S1132160660080E00E94660080911B028D9F912D85
S113217011249695969596959C9F801911240E94FA
S1132180000880E00E94660080E00E94660080E013
S11321900E94660080911C028D9FD12D1124D6953A
S11321A0D695D695DC9F801911240E94000854C04E
S11321B0D23009F051C080910F02DFE48D9F912D40
S11321C01124969596959695CAE19C9F80191124A1
S11321D00E94000880E00E94660080E00E94660081
S11321E080E00E946600809110028D9F912D112441
S11321F09695969596959C9F801911240E940008A7
S113220080E00E94660080E00E94660080E00E94F8
S11322106600809111028D9F912D112496959695BB
S113222096959C9F801911240E94000880E00E94CA
S1132230660080E00E94660080E00E946600809153
S113224012028D9FD12D1124D695D695D695DC9F5B
S1132250801911240E940008DF91CF910895CF9333
S113226080E00E94660080E00E94660080E00E9498
S1132270660080E00E9466008EE30E94660082E2AF
S11322800E94660080E00E9466008EE30E94660061
S113229088E00E9466008EE30E94660080E00E944F
S11322A066008EE30E9466008AE00E9466008EE368
S11322B00E94660080E00E9466008EE30E94660031
S11322C084E00E94660088E00E9466008EE30E941B
S11322D0660080E00E9466008EE30E94660082E24F
S11322E00E9466008AE30E94660080E00E94660005
S11322F08EE30E9466008AE20E946600C8E080E0E5
S11323000E946600C150D9F78EE30E9466008AE2FB
S11323100E94660084E10E94660080E00E946600DC
S11323208EE30E9466008AE20E94660080E00E94BA
S113233066008EE30E9466008AE00E9466008EE3D7
S11323400E94660080E00E9466008EE30E946600A0
S11323508AE10E9466008EE20E94660080E00E948C
S113236066008EE30E94660080E00E9466008EE3B1
S11323700E94660084E00E94660088E00E94660075
S11323808EE30E94660080E00E9466008EE30E9455
S1132390660082E20E9466008AE30E946600C5E04D
S11323A080E00E946600C150D9F7CF910895CF9381
S11323B0DF93D82FCCE080E00E946600C150D9F7AB
S11323C082E00E9466008EE30E94660082E00E9422
S11323D0660080E00E9466008EE30E94660082E24E
S11323E00E9466008EE30E946600C1E180E00E94C4
S11323F06600C150D9F7D13009F065C08091190247
S1132400877049F48DE00E940008C6E080E00E94D5
S11324106600C150D9F7809119028770813049F460
S113242082E10E940008C6E080E00E946600C1507C
S1132430D9F7809119028770823049F484E00E94B0
S11324400008C6E080E00E946600C150D9F7809180
S113245019028770833049F486E10E940008C6E0BF
S113246080E00E946600C150D9F7809119028770FC
S1132470843031F48DE00E94000884E00E9400085A
S1132480809119028770853031F48DE00E94000834
S113249086E10E940008809119028770863031F429
S11324A082E10E94000883E00E94000880911902E2
S11324B08770873009F074C082E10E94000886E1C9
S11324C00E9400086DC0D23009F06AC080910F02EA
S11324D0877049F48DE00E940008C6E080E00E9405
S11324E06600C150D9F780910F028770813049F49A
S11324F082E10E940008C6E080E00E946600C150AC
S1132500D9F780910F028770823049F484E00E94E9
S11325100008C6E080E00E946600C150D9F78091AF
S11325200F028770833049F486E10E940008C6E0F8
S113253080E00E946600C150D9F780910F02877035
S1132540843031F48DE00E94000884E00E94000889
S113255080910F028770853031F48DE00E9400086D
S113256086E10E94000880910F028770863031F462
S113257082E10E94000883E00E94000880910F021B
S11325808770873069F482E10E94000886E10E9426
S1132590000806C080E00E946600C150D9F702C05E
S11325A0C0E1F8CFDF91CF910895EF92FF921F938E
S11325B0CF93DF9310E00F2EFDE0EF2EF2E0FF2E1D
S11325C0F02DC7E1D2E0812F806B0E94610082E18F
S11325D00E94610080E00E946100111131C080916D
S11325E008020E949D070E94ED00809107020E944C
S11325F09D07809106020E949D07809105020E941A
S11326009D07809127020E949D0780E00E9466003A
S113261080E00E94660080E00E94660080E00E94E4
S1132620660080E00E94660080E00E94660080E010
S11326300E94660080E00E9466000E94F40050C080
S1132640113019F40E94460689C0123009F048C0BE
S113265084E10E949D07809100020E949D0780E012
S11326600E94660088E00E94660088E00E9466007E
S1132670809101020E949D0780E00E94660088E02C
S11326800E94660088E00E946600809102020E9417
S11326909D0780E00E94660080E00E94660080E062
S11326A00E94660080E00E94660080E00E9466004E
S11326B080E00E946600809103020E949D0780E0F2
S11326C00E94660088E30E94660080E10E94660022
S11326D088E30E946600809104020E949D072AC13B
S11326E01330E1F580912602811105C08091210209
S11326F081110E94220A80912602811106C08091D4
S11327002102811102C00E940304809126028130BB
S113271029F48881853011F00E94220A80912602D2
S1132720823031F4F7018081853011F00E94220A51
S113273080912602813029F48881853011F40E9429
S1132740B30D80912602823009F0E6C1F701808141
S1132750853009F0E1C10E94B30DDEC1143009F0E7
S1132760E9C08091260281113CC080912102882316
S1132770C1F1809103020E94BE0780E00E946600BE
S113278080E00E94660080E00E94660080E80E946B
S1132790660080E80E94660080E80E94660080E08F
S11327A00E94660080E00E94660080E00E9466004D
S11327B080E80E94660080E80E94660080E80E942B
S11327C06600809104020E94BE0780E00E946600B9
S11327D080E00E94660080E00E94660080E00E9423
S11327E0660080912602811106C080912102811128
S11327F002C00E94C40480912602813029F4888199
S1132800811102C00E942B0A80912602813029F492
S11328108881813011F40E94EC0A80912602813073
S113282029F48881823011F40E94640B809126027D
S1132830813029F48881833011F40E94090C80913D
S11328402602813029F48881843011F40E94140D09
S113285080912602813031F48881853019F481E039
S11328600E94F20D80912602813031F488818630F5
S113287019F481E00E94561080912602813029F4D7
S11328808881873011F40E942F11809126028230B2
S113289031F4F7018081811102C00E942B0A8091DA
S11328A02602823031F4F7018081813011F40E94D4
S11328B0EC0A80912602823031F4F7018081823063
S11328C011F40E94640B80912602823031F4F701E6
S11328D08081833011F40E94090C80912602823099
S11328E031F4F7018081843011F40E94140D809139
S11328F02602823039F4F7018081853019F482E0B0
S11329000E94F20D80912602823039F4F701808111
S1132910863019F482E00E9456108091260282309B
S113292009F0FFC0F7018081873009F0FAC00E94E6
S11329302F11F7C0153009F0EFC0809126028111E4
S11329403CC0809121028823C1F1809103020E943E
S1132950DF0780E00E94660080E00E94660080E05D
S11329600E9466008FEF0E9466008FEF0E9466004F
S11329708FEF0E9466008CE10E9466008CE10E9449
S113298066008CE10E9466008FEF0E9466008FEF64
S11329900E9466008FEF0E946600809104020E94EC
S11329A0DF0780E00E94660080E00E94660080E00D
S11329B00E94660080E00E946600809126028111D8
S11329C006C080912102811102C00E948505809178
S11329D02602813031F480911702811102C00E94D5
S11329E0220A80912602813031F4809117028130CD
S11329F011F40E94220A80912602813031F48091E0
S1132A001702823011F40E94220A8091260281303A
S1132A1031F480911702833011F40E94C00C80912C
S1132A202602813031F480911702843011F40E941F
S1132A30220A80912602813039F480911702853070
S1132A4019F481E00E94240F80912602813031F430
S1132A5080911702863011F40E94220A8091260286
S1132A60813039F480911702873019F481E00E9493
S1132A70D71180912602823031F480910D028111A8
S1132A8002C00E94220A80912602823031F4809191
S1132A900D02813011F40E94220A809126028230B4
S1132AA031F480910D02823011F40E94220A809147
S1132AB02602823031F480910D02833011F40E9499
S1132AC0C00C80912602823031F480910D02843052
S1132AD011F40E94220A80912602823039F48091F6
S1132AE00D02853019F482E00E94240F80912602A1
S1132AF0823031F480910D02863011F40E94220A52
S1132B0080912602823079F480910D02873059F445
S1132B1082E00E94D71107C01F5F163009F053CD21
S1132B2002C01F5F50CDDF91CF911F91FF90EF90B6
S1132B3008951F920F920FB60F92112410920C0257
S1132B400F900FBE0F901F9018951092700080E2A6
S1132B508093B6001092B200E1EBF0E080818360D4
S1132B608083E6EBF0E080818171E9F781E087BB47
S1132B708093700008951F920F920FB60F92112444
S1132B802F933F934F935F936F937F938F939F9371
S1132B90AF93BF93EF93FF93499B09C080912102A8
S1132BA0811105C01092220281E0809325024B9B83
S1132BB00FC08091250281110BC0809126028F5F86
S1132BC08093260280912602833010F01092260210
S1132BD080912302813009F047C080912502813021
S1132BE009F042C08091220281111CC080E090E073
S1132BF0FC01E95EFD4F2081FC01E35FFD4F208372
S1132C0001968A309105A1F7E0912202F0E08091CB
S1132C1024028770E95EFD4F8083809122028F5FDA
S1132C208093220280912202882369F0E09122029B
S1132C30F0E080912402E95EFD4F808380912202BE
S1132C408F5F8093220280912202873028F0809146
S1132C501D028F778093210280912202883010F028
S1132C60109225021092230280910C02811103C05C
S1132C708FEA0E94610080910C02833240F40E942A
S1132C80D51280910C028F5F80930C020BC080914F
S1132C900C02833238F080912502811103C08EEA40
S1132CA00E946100809127028150809327028091C5
S1132CB027028F3F61F583E6809327028091050206
S1132CC0815080930502809105028F3F01F583E6D0
S1132CD080930502809106028150809306028091C0
S1132CE006028F3FA1F483E68093060280910702D7
S1132CF0815080930702809107028F3F41F483E65D
S1132D008093070280910802815080930802809189
S1132D100B028F5F80930B0280910B02837009F08A
S1132D2076C080910A028F5F80930A0280910A0222
S1132D308C3309F06CC010920A02809104028F5FF8
S1132D4080930402809104028C3309F060C01092D5
S1132D500402809103028F5F809303028091210219
S1132D60882329F08091210281508093210280914F
S1132D700302883109F04BC01092030280910202D1
S1132D808F5F8093020280910202803261F1809110
S1132D9002028F3181F480910102843021F180910B
S1132DA00102863001F1809101028930E1F08091C5
S1132DB001028B30C1F080910102823041F4809194
S1132DC002028D3121F480910002837061F48091BC
S1132DD001028230E1F4809102028E31C1F48091CB
S1132DE000028370A1F481E08093020280910102C9
S1132DF08F5F80930102809101028D3041F481E064
S1132E0080930102809100028F5F80930002FF9102
S1132E10EF91BF91AF919F918F917F916F915F914E
S1132E204F913F912F910F900FBE0F901F901895C7
S1132E308FE284B91AB80E94A515789483B7817F6C
S1132E40866083BFE8E6F0E0808184608083EDE6FD
S1132E50F0E08081846080830E945300299A81EE8F
S1132E6094E00197F1F700C0000085B18C7F85B92B
S1132E7083EC99E00197F1F700C00000299A8DE8EE
S1132E800E94610084E10E9461008FEA0E94610057
S1132E9080EB0E946100D0E010E08D2F806B0E94D7
S1132EA06100C12F8C2F8F700E946600CF5FC038E5
S1132EB0C9F7DF5FD63089F790E020E031E00EC03B
S1132EC09F5F4B9B0BC080912302811107C090939D
S1132ED0240230932302922F01C0922F8091250265
S1132EE0813071F3809125028111F7CF83B781601E
S1132EF083BF889583B78E7F83BF922FEFCF97FBD5
S1132F00072E16F4009407D077FD09D00E94B51758
S1132F1007FC05D03EF4909581959F4F08957095D8
S1132F2061957F4F0895A1E21A2EAA1BBB1BFD01D8
S1132F300DC0AA1FBB1FEE1FFF1FA217B307E40794
S1132F40F50720F0A21BB30BE40BF50B661F771FEC
S1132F50881F991F1A9469F76095709580959095CC
S1132F609B01AC01BD01CF010895AA1BBB1B51E11C
S1132F7007C0AA1FBB1FA617B70710F0A61BB70BE5
S1132F80881F991F5A95A9F780959095BC01CD018A
S1092F900895F894FFCF40
S1132F962906010073DF0000E500010027E20000B6
S1132FA692FF0000EAFA0000E4F60000C3F0000015
S1132FB695EB00008BE6000062E90000C7FF000005
S1132FC604FB0000CAF60000E8F00000CDEB0000A8
S1132FD6F9E600008DFF00000FFB0000C8F60000B4
S1132FE611F100000CEC000067E70000EF07010098
S1132FF67C020100DBFD0000F90701004F0201001D
S113300600FE0000FE070100820201002BFE000004
S1133016595C0000765B0000A5580000DA570000F2
S1133026E3530000C25300008D5300007C5300009C
S1133036B3530000B7530000B8530000BE4F00005E
S1133046E54F0000E34F00001D500000F64F00005E
S1133056B04F0000714C00004E4C0000664C00005E
S11330668D4C0000064C0000084C00005047000040
S11330768B47000025470000E44300009743000007
S1133086124400000040000035400000F63F0000F6
S10D309610050C0E355A3463430094
S9030000FC
